{
  "contractName": "FlightSuretyData",
  "abi": [
    {
      "constant": true,
      "inputs": [
        {
          "name": "",
          "type": "address"
        }
      ],
      "name": "pendingPayments",
      "outputs": [
        {
          "name": "",
          "type": "uint256"
        }
      ],
      "payable": false,
      "stateMutability": "view",
      "type": "function"
    },
    {
      "inputs": [
        {
          "name": "firstAirlineName",
          "type": "string"
        },
        {
          "name": "firstAirlineAddress",
          "type": "address"
        }
      ],
      "payable": false,
      "stateMutability": "nonpayable",
      "type": "constructor"
    },
    {
      "payable": true,
      "stateMutability": "payable",
      "type": "fallback"
    },
    {
      "anonymous": false,
      "inputs": [
        {
          "indexed": false,
          "name": "name",
          "type": "string"
        },
        {
          "indexed": false,
          "name": "addr",
          "type": "address"
        }
      ],
      "name": "AirlinePaid",
      "type": "event"
    },
    {
      "anonymous": false,
      "inputs": [
        {
          "indexed": false,
          "name": "name",
          "type": "string"
        },
        {
          "indexed": false,
          "name": "addr",
          "type": "address"
        }
      ],
      "name": "AirlineRegistered",
      "type": "event"
    },
    {
      "anonymous": false,
      "inputs": [
        {
          "indexed": false,
          "name": "passenger",
          "type": "address"
        },
        {
          "indexed": false,
          "name": "amount",
          "type": "uint256"
        }
      ],
      "name": "InsureeCredited",
      "type": "event"
    },
    {
      "anonymous": false,
      "inputs": [
        {
          "indexed": false,
          "name": "airline",
          "type": "address"
        },
        {
          "indexed": false,
          "name": "flight",
          "type": "string"
        },
        {
          "indexed": false,
          "name": "timestamp",
          "type": "uint256"
        },
        {
          "indexed": false,
          "name": "passenger",
          "type": "address"
        },
        {
          "indexed": false,
          "name": "amount",
          "type": "uint256"
        },
        {
          "indexed": false,
          "name": "multiplier",
          "type": "uint256"
        }
      ],
      "name": "InsuranceBought",
      "type": "event"
    },
    {
      "anonymous": false,
      "inputs": [
        {
          "indexed": false,
          "name": "airline",
          "type": "address"
        },
        {
          "indexed": false,
          "name": "flight",
          "type": "string"
        },
        {
          "indexed": false,
          "name": "timestamp",
          "type": "uint256"
        },
        {
          "indexed": false,
          "name": "statusCode",
          "type": "uint8"
        }
      ],
      "name": "FlightStatusUpdated",
      "type": "event"
    },
    {
      "anonymous": false,
      "inputs": [
        {
          "indexed": false,
          "name": "passenger",
          "type": "address"
        },
        {
          "indexed": false,
          "name": "amount",
          "type": "uint256"
        }
      ],
      "name": "AccountWithdrawn",
      "type": "event"
    },
    {
      "anonymous": false,
      "inputs": [
        {
          "indexed": false,
          "name": "airline",
          "type": "address"
        },
        {
          "indexed": false,
          "name": "flight",
          "type": "string"
        },
        {
          "indexed": false,
          "name": "from",
          "type": "string"
        },
        {
          "indexed": false,
          "name": "to",
          "type": "string"
        },
        {
          "indexed": false,
          "name": "timestamp",
          "type": "uint256"
        }
      ],
      "name": "FlightRegistered",
      "type": "event"
    },
    {
      "constant": false,
      "inputs": [
        {
          "name": "contractAddress",
          "type": "address"
        }
      ],
      "name": "deauthorizeContract",
      "outputs": [],
      "payable": false,
      "stateMutability": "nonpayable",
      "type": "function"
    },
    {
      "constant": false,
      "inputs": [
        {
          "name": "contractAddress",
          "type": "address"
        }
      ],
      "name": "authorizeContract",
      "outputs": [],
      "payable": false,
      "stateMutability": "nonpayable",
      "type": "function"
    },
    {
      "constant": true,
      "inputs": [],
      "name": "isOperational",
      "outputs": [
        {
          "name": "",
          "type": "bool"
        }
      ],
      "payable": false,
      "stateMutability": "view",
      "type": "function"
    },
    {
      "constant": true,
      "inputs": [
        {
          "name": "airline",
          "type": "address"
        }
      ],
      "name": "getAirlineName",
      "outputs": [
        {
          "name": "",
          "type": "string"
        }
      ],
      "payable": false,
      "stateMutability": "view",
      "type": "function"
    },
    {
      "constant": true,
      "inputs": [
        {
          "name": "airline",
          "type": "address"
        }
      ],
      "name": "isRegisteredAirline",
      "outputs": [
        {
          "name": "",
          "type": "bool"
        }
      ],
      "payable": false,
      "stateMutability": "view",
      "type": "function"
    },
    {
      "constant": true,
      "inputs": [
        {
          "name": "airline",
          "type": "address"
        }
      ],
      "name": "isPaidAirline",
      "outputs": [
        {
          "name": "",
          "type": "bool"
        }
      ],
      "payable": false,
      "stateMutability": "view",
      "type": "function"
    },
    {
      "constant": true,
      "inputs": [],
      "name": "getRegisteredAirlines",
      "outputs": [
        {
          "name": "",
          "type": "address[]"
        }
      ],
      "payable": false,
      "stateMutability": "view",
      "type": "function"
    },
    {
      "constant": true,
      "inputs": [
        {
          "name": "key",
          "type": "bytes32"
        },
        {
          "name": "passenger",
          "type": "address"
        }
      ],
      "name": "isInsured",
      "outputs": [
        {
          "name": "",
          "type": "bool"
        }
      ],
      "payable": false,
      "stateMutability": "view",
      "type": "function"
    },
    {
      "constant": true,
      "inputs": [
        {
          "name": "key",
          "type": "bytes32"
        }
      ],
      "name": "isRegisteredFlight",
      "outputs": [
        {
          "name": "",
          "type": "bool"
        }
      ],
      "payable": false,
      "stateMutability": "view",
      "type": "function"
    },
    {
      "constant": true,
      "inputs": [
        {
          "name": "passenger",
          "type": "address"
        }
      ],
      "name": "getPendingPaymentAmount",
      "outputs": [
        {
          "name": "",
          "type": "uint256"
        }
      ],
      "payable": false,
      "stateMutability": "view",
      "type": "function"
    },
    {
      "constant": false,
      "inputs": [
        {
          "name": "status",
          "type": "bool"
        }
      ],
      "name": "setOperatingStatus",
      "outputs": [],
      "payable": false,
      "stateMutability": "nonpayable",
      "type": "function"
    },
    {
      "constant": false,
      "inputs": [
        {
          "name": "name",
          "type": "string"
        },
        {
          "name": "addr",
          "type": "address"
        }
      ],
      "name": "registerAirline",
      "outputs": [
        {
          "name": "success",
          "type": "bool"
        }
      ],
      "payable": false,
      "stateMutability": "nonpayable",
      "type": "function"
    },
    {
      "constant": false,
      "inputs": [
        {
          "name": "addr",
          "type": "address"
        }
      ],
      "name": "payAirline",
      "outputs": [],
      "payable": false,
      "stateMutability": "nonpayable",
      "type": "function"
    },
    {
      "constant": false,
      "inputs": [
        {
          "name": "airline",
          "type": "address"
        },
        {
          "name": "flight",
          "type": "string"
        },
        {
          "name": "from",
          "type": "string"
        },
        {
          "name": "to",
          "type": "string"
        },
        {
          "name": "timestamp",
          "type": "uint256"
        },
        {
          "name": "key",
          "type": "bytes32"
        }
      ],
      "name": "registerFlight",
      "outputs": [],
      "payable": false,
      "stateMutability": "nonpayable",
      "type": "function"
    },
    {
      "constant": false,
      "inputs": [
        {
          "name": "key",
          "type": "bytes32"
        },
        {
          "name": "passenger",
          "type": "address"
        },
        {
          "name": "amount",
          "type": "uint256"
        },
        {
          "name": "multiplier",
          "type": "uint256"
        }
      ],
      "name": "purchase",
      "outputs": [],
      "payable": false,
      "stateMutability": "nonpayable",
      "type": "function"
    },
    {
      "constant": false,
      "inputs": [
        {
          "name": "flightKey",
          "type": "bytes32"
        },
        {
          "name": "statusCode",
          "type": "uint8"
        }
      ],
      "name": "processFlightStatus",
      "outputs": [],
      "payable": false,
      "stateMutability": "nonpayable",
      "type": "function"
    },
    {
      "constant": false,
      "inputs": [
        {
          "name": "passenger",
          "type": "address"
        }
      ],
      "name": "pay",
      "outputs": [],
      "payable": false,
      "stateMutability": "nonpayable",
      "type": "function"
    },
    {
      "constant": false,
      "inputs": [],
      "name": "fund",
      "outputs": [],
      "payable": true,
      "stateMutability": "payable",
      "type": "function"
    }
  ],
  "bytecode": "0x60806040524260005560018060146101000a81548160ff0219169083151502179055506000604051908082528060200260200182016040528015620000535781602001602082028038833980820191505090505b50600290805190602001906200006b929190620002b1565b5060006040519080825280602002602001820160405280156200009d5781602001602082028038833980820191505090505b5060059080519060200190620000b5929190620002b1565b506000604051908082528060200260200182016040528015620000e75781602001602082028038833980820191505090505b5060079080519060200190620000ff92919062000340565b503480156200010d57600080fd5b50604051620032a3380380620032a3833981018060405281019080805182019291906020018051906020019092919050505033600160006101000a81548173ffffffffffffffffffffffffffffffffffffffff021916908373ffffffffffffffffffffffffffffffffffffffff16021790555060606040519081016040528083815260200160001515815260200160011515815250600460008373ffffffffffffffffffffffffffffffffffffffff1673ffffffffffffffffffffffffffffffffffffffff1681526020019081526020016000206000820151816000019080519060200190620001ff92919062000398565b5060208201518160010160006101000a81548160ff02191690831515021790555060408201518160010160016101000a81548160ff02191690831515021790555090505060058190806001815401808255809150509060018203906000526020600020016000909192909190916101000a81548173ffffffffffffffffffffffffffffffffffffffff021916908373ffffffffffffffffffffffffffffffffffffffff160217905550505050620004b5565b8280548282559060005260206000209081019282156200032d579160200282015b828111156200032c5782518260006101000a81548173ffffffffffffffffffffffffffffffffffffffff021916908373ffffffffffffffffffffffffffffffffffffffff16021790555091602001919060010190620002d2565b5b5090506200033c91906200041f565b5090565b82805482825590600052602060002090810192821562000385579160200282015b828111156200038457825182906000191690559160200191906001019062000361565b5b50905062000394919062000465565b5090565b828054600181600116156101000203166002900490600052602060002090601f016020900481019282601f10620003db57805160ff19168380011785556200040c565b828001600101855582156200040c579182015b828111156200040b578251825591602001919060010190620003ee565b5b5090506200041b91906200048d565b5090565b6200046291905b808211156200045e57600081816101000a81549073ffffffffffffffffffffffffffffffffffffffff02191690555060010162000426565b5090565b90565b6200048a91905b80821115620004865760008160009055506001016200046c565b5090565b90565b620004b291905b80821115620004ae57600081600090555060010162000494565b5090565b90565b612dde80620004c56000396000f300608060405260043610610107576000357c0100000000000000000000000000000000000000000000000000000000900463ffffffff16806308675ea6146101115780630c11dedd146101b45780630e2c4129146101f75780630f9429b71461026a578063110466ed146102a85780633e3e1e04146102d7578063524b61001461033c57806367561d93146103f85780636e861c0e1461043b5780637f38e5261461047e57806395deca9d146104d5578063a283fd001461051e578063a78d979914610575578063b60d4288146105d0578063bf3c0d7a146105da578063c23bcf0914610635578063cd905dff146106a1578063ee8bd1d0146106d0578063f1494d7614610739575b61010f61077c565b005b34801561011d57600080fd5b506101b2600480360381019080803573ffffffffffffffffffffffffffffffffffffffff169060200190929190803590602001908201803590602001919091929391929390803590602001908201803590602001919091929391929390803590602001908201803590602001919091929391929390803590602001909291908035600019169060200190929190505050610820565b005b3480156101c057600080fd5b506101f5600480360381019080803573ffffffffffffffffffffffffffffffffffffffff169060200190929190505050610f55565b005b34801561020357600080fd5b50610250600480360381019080803590602001908201803590602001919091929391929390803573ffffffffffffffffffffffffffffffffffffffff1690602001909291905050506112cc565b604051808215151515815260200191505060405180910390f35b34801561027657600080fd5b506102a66004803603810190808035600019169060200190929190803560ff16906020019092919050505061171f565b005b3480156102b457600080fd5b506102d5600480360381019080803515159060200190929190505050611907565b005b3480156102e357600080fd5b5061033a6004803603810190808035600019169060200190929190803573ffffffffffffffffffffffffffffffffffffffff1690602001909291908035906020019092919080359060200190929190505050611c6d565b005b34801561034857600080fd5b5061037d600480360381019080803573ffffffffffffffffffffffffffffffffffffffff169060200190929190505050611ecb565b6040518080602001828103825283818151815260200191508051906020019080838360005b838110156103bd5780820151818401526020810190506103a2565b50505050905090810190601f1680156103ea5780820380516001836020036101000a031916815260200191505b509250505060405180910390f35b34801561040457600080fd5b50610439600480360381019080803573ffffffffffffffffffffffffffffffffffffffff169060200190929190505050611faf565b005b34801561044757600080fd5b5061047c600480360381019080803573ffffffffffffffffffffffffffffffffffffffff1690602001909291905050506120bc565b005b34801561048a57600080fd5b506104bf600480360381019080803573ffffffffffffffffffffffffffffffffffffffff1690602001909291905050506121c7565b6040518082815260200191505060405180910390f35b3480156104e157600080fd5b5061050460048036038101908080356000191690602001909291905050506121df565b604051808215151515815260200191505060405180910390f35b34801561052a57600080fd5b5061055f600480360381019080803573ffffffffffffffffffffffffffffffffffffffff169060200190929190505050612214565b6040518082815260200191505060405180910390f35b34801561058157600080fd5b506105b6600480360381019080803573ffffffffffffffffffffffffffffffffffffffff16906020019092919050505061225d565b604051808215151515815260200191505060405180910390f35b6105d861077c565b005b3480156105e657600080fd5b5061061b600480360381019080803573ffffffffffffffffffffffffffffffffffffffff1690602001909291905050506122b6565b604051808215151515815260200191505060405180910390f35b34801561064157600080fd5b5061064a61230f565b6040518080602001828103825283818151815260200191508051906020019060200280838360005b8381101561068d578082015181840152602081019050610672565b505050509050019250505060405180910390f35b3480156106ad57600080fd5b506106b661239d565b604051808215151515815260200191505060405180910390f35b3480156106dc57600080fd5b5061071f6004803603810190808035600019169060200190929190803573ffffffffffffffffffffffffffffffffffffffff1690602001909291905050506123b4565b604051808215151515815260200191505060405180910390f35b34801561074557600080fd5b5061077a600480360381019080803573ffffffffffffffffffffffffffffffffffffffff169060200190929190505050612533565b005b61078461239d565b151561081e576040517f08c379a00000000000000000000000000000000000000000000000000000000081526004018080602001828103825260258152602001807f436f6e74726163742069732063757272656e746c79206e6f74206f706572617481526020017f696f6e616c00000000000000000000000000000000000000000000000000000081525060400191505060405180910390fd5b565b61082861239d565b15156108c2576040517f08c379a00000000000000000000000000000000000000000000000000000000081526004018080602001828103825260258152602001807f436f6e74726163742069732063757272656e746c79206e6f74206f706572617481526020017f696f6e616c00000000000000000000000000000000000000000000000000000081525060400191505060405180910390fd5b6001600360003373ffffffffffffffffffffffffffffffffffffffff1673ffffffffffffffffffffffffffffffffffffffff16815260200190815260200160002054141515610979576040517f08c379a000000000000000000000000000000000000000000000000000000000815260040180806020018281038252601a8152602001807f4e6f7420616e20617574686f72697a656420636f6e747261637400000000000081525060200191505060405180910390fd5b88600073ffffffffffffffffffffffffffffffffffffffff168173ffffffffffffffffffffffffffffffffffffffff1614151515610a1f576040517f08c379a00000000000000000000000000000000000000000000000000000000081526004018080602001828103825260178152602001807f7265717569726520612076616c6964206164647265737300000000000000000081525060200191505060405180910390fd5b893073ffffffffffffffffffffffffffffffffffffffff1663bf3c0d7a826040518263ffffffff167c0100000000000000000000000000000000000000000000000000000000028152600401808273ffffffffffffffffffffffffffffffffffffffff1673ffffffffffffffffffffffffffffffffffffffff168152602001915050602060405180830381600087803b158015610abb57600080fd5b505af1158015610acf573d6000803e3d6000fd5b505050506040513d6020811015610ae557600080fd5b81019080805190602001909291905050501515610b90576040517f08c379a000000000000000000000000000000000000000000000000000000000815260040180806020018281038252603a8152602001807f4f6e6c79206578697374696e6720616e642070616964206169726c696e65732081526020017f61726520616c6c6f77656420746f20706172746963697061746500000000000081525060400191505060405180910390fd5b60066000846000191660001916815260200190815260200160002060010160009054906101000a900460ff16151515610c57576040517f08c379a00000000000000000000000000000000000000000000000000000000081526004018080602001828103825260238152602001807f4169726c696e65466c69676874206973207265676973746572656420616c726581526020017f616479000000000000000000000000000000000000000000000000000000000081525060400191505060405180910390fd5b60e0604051908101604052808b8b8080601f0160208091040260200160405190810160405280939291908181526020018383808284378201915050505050508152602001600115158152602001600060ff1681526020018581526020018c73ffffffffffffffffffffffffffffffffffffffff16815260200189898080601f016020809104026020016040519081016040528093929190818152602001838380828437820191505050505050815260200187878080601f0160208091040260200160405190810160405280939291908181526020018383808284378201915050505050508152506006600085600019166000191681526020019081526020016000206000820151816000019080519060200190610d75929190612bff565b5060208201518160010160006101000a81548160ff02191690831515021790555060408201518160010160016101000a81548160ff021916908360ff1602179055506060820151816002015560808201518160030160006101000a81548173ffffffffffffffffffffffffffffffffffffffff021916908373ffffffffffffffffffffffffffffffffffffffff16021790555060a0820151816004019080519060200190610e24929190612bff565b5060c0820151816005019080519060200190610e41929190612bff565b5090505060078390806001815401808255809150509060018203906000526020600020016000909192909190915090600019169055507f89a9f03eebe04f13795943cbdfd1e43e6326841c8962dde05c51a48a54db56918b8b8b8b8b8b8b8b604051808973ffffffffffffffffffffffffffffffffffffffff1673ffffffffffffffffffffffffffffffffffffffff16815260200180602001806020018060200185815260200184810384528b8b82818152602001925080828437820191505084810383528989828181526020019250808284378201915050848103825287878281815260200192508082843782019150509b50505050505050505050505060405180910390a15050505050505050505050565b6000610f5f61239d565b1515610ff9576040517f08c379a00000000000000000000000000000000000000000000000000000000081526004018080602001828103825260258152602001807f436f6e74726163742069732063757272656e746c79206e6f74206f706572617481526020017f696f6e616c00000000000000000000000000000000000000000000000000000081525060400191505060405180910390fd5b6001600360003373ffffffffffffffffffffffffffffffffffffffff1673ffffffffffffffffffffffffffffffffffffffff168152602001908152602001600020541415156110b0576040517f08c379a000000000000000000000000000000000000000000000000000000000815260040180806020018281038252601a8152602001807f4e6f7420616e20617574686f72697a656420636f6e747261637400000000000081525060200191505060405180910390fd5b816000600960008373ffffffffffffffffffffffffffffffffffffffff1673ffffffffffffffffffffffffffffffffffffffff1681526020019081526020016000205411151561118e576040517f08c379a00000000000000000000000000000000000000000000000000000000081526004018080602001828103825260228152602001807f46756e64206973206e6f7420656e6f7567687420666f7220776974686472617781526020017f616c00000000000000000000000000000000000000000000000000000000000081525060400191505060405180910390fd5b600960008473ffffffffffffffffffffffffffffffffffffffff1673ffffffffffffffffffffffffffffffffffffffff1681526020019081526020016000205491506000600960008573ffffffffffffffffffffffffffffffffffffffff1673ffffffffffffffffffffffffffffffffffffffff168152602001908152602001600020819055508273ffffffffffffffffffffffffffffffffffffffff166108fc839081150290604051600060405180830381858888f1935050505015801561125b573d6000803e3d6000fd5b507fdfeacc538b4e5daa9b6f7bd5267be179488543805cd27e8022d2883a4dc847d78383604051808373ffffffffffffffffffffffffffffffffffffffff1673ffffffffffffffffffffffffffffffffffffffff1681526020018281526020019250505060405180910390a1505050565b60006112d661239d565b1515611370576040517f08c379a00000000000000000000000000000000000000000000000000000000081526004018080602001828103825260258152602001807f436f6e74726163742069732063757272656e746c79206e6f74206f706572617481526020017f696f6e616c00000000000000000000000000000000000000000000000000000081525060400191505060405180910390fd5b6001600360003373ffffffffffffffffffffffffffffffffffffffff1673ffffffffffffffffffffffffffffffffffffffff16815260200190815260200160002054141515611427576040517f08c379a000000000000000000000000000000000000000000000000000000000815260040180806020018281038252601a8152602001807f4e6f7420616e20617574686f72697a656420636f6e747261637400000000000081525060200191505060405180910390fd5b81600073ffffffffffffffffffffffffffffffffffffffff168173ffffffffffffffffffffffffffffffffffffffff16141515156114cd576040517f08c379a00000000000000000000000000000000000000000000000000000000081526004018080602001828103825260178152602001807f7265717569726520612076616c6964206164647265737300000000000000000081525060200191505060405180910390fd5b82600460008273ffffffffffffffffffffffffffffffffffffffff1673ffffffffffffffffffffffffffffffffffffffff16815260200190815260200160002060010160019054906101000a900460ff161515156115b9576040517f08c379a00000000000000000000000000000000000000000000000000000000081526004018080602001828103825260238152602001807f4169726c696e652068617320616c7265616479206265656e207265676973746581526020017f726564000000000000000000000000000000000000000000000000000000000081525060400191505060405180910390fd5b60606040519081016040528087878080601f016020809104026020016040519081016040528093929190818152602001838380828437820191505050505050815260200160001515815260200160011515815250600460008673ffffffffffffffffffffffffffffffffffffffff1673ffffffffffffffffffffffffffffffffffffffff1681526020019081526020016000206000820151816000019080519060200190611668929190612bff565b5060208201518160010160006101000a81548160ff02191690831515021790555060408201518160010160016101000a81548160ff02191690831515021790555090505060058490806001815401808255809150509060018203906000526020600020016000909192909190916101000a81548173ffffffffffffffffffffffffffffffffffffffff021916908373ffffffffffffffffffffffffffffffffffffffff160217905550506001925050509392505050565b61172761239d565b15156117c1576040517f08c379a00000000000000000000000000000000000000000000000000000000081526004018080602001828103825260258152602001807f436f6e74726163742069732063757272656e746c79206e6f74206f706572617481526020017f696f6e616c00000000000000000000000000000000000000000000000000000081525060400191505060405180910390fd5b6001600360003373ffffffffffffffffffffffffffffffffffffffff1673ffffffffffffffffffffffffffffffffffffffff16815260200190815260200160002054141515611878576040517f08c379a000000000000000000000000000000000000000000000000000000000815260040180806020018281038252601a8152602001807f4e6f7420616e20617574686f72697a656420636f6e747261637400000000000081525060200191505060405180910390fd5b600060ff1660066000846000191660001916815260200190815260200160002060010160019054906101000a900460ff1660ff161415611903578060066000846000191660001916815260200190815260200160002060010160016101000a81548160ff021916908360ff160217905550601460ff168160ff1614156119025761190182612818565b5b5b5050565b60008060009150600090505b6002805490508110156119a3573373ffffffffffffffffffffffffffffffffffffffff1660028281548110151561194657fe5b9060005260206000200160009054906101000a900473ffffffffffffffffffffffffffffffffffffffff1673ffffffffffffffffffffffffffffffffffffffff16141561199657600191506119a3565b8080600101915050611913565b81151515611a3f576040517f08c379a00000000000000000000000000000000000000000000000000000000081526004018080602001828103825260288152602001807f43616c6c65722068617320616c72656164792063616c6c65642074686973206681526020017f756e6374696f6e2e00000000000000000000000000000000000000000000000081525060400191505060405180910390fd5b82600160149054906101000a900460ff16151581151514151515611acb576040517f08c379a00000000000000000000000000000000000000000000000000000000081526004018080602001828103825260188152602001807f737461747573206d75737420626520646966666572656e74000000000000000081525060200191505060405180910390fd5b600160009054906101000a900473ffffffffffffffffffffffffffffffffffffffff1673ffffffffffffffffffffffffffffffffffffffff163373ffffffffffffffffffffffffffffffffffffffff16141515611b90576040517f08c379a000000000000000000000000000000000000000000000000000000000815260040180806020018281038252601c8152602001807f43616c6c6572206973206e6f7420636f6e7472616374206f776e65720000000081525060200191505060405180910390fd5b60023390806001815401808255809150509060018203906000526020600020016000909192909190916101000a81548173ffffffffffffffffffffffffffffffffffffffff021916908373ffffffffffffffffffffffffffffffffffffffff160217905550506001600280549050101515611c675783600160146101000a81548160ff0219169083151502179055506000604051908082528060200260200182016040528015611c4f5781602001602082028038833980820191505090505b5060029080519060200190611c65929190612c7f565b505b50505050565b611c7561239d565b1515611d0f576040517f08c379a00000000000000000000000000000000000000000000000000000000081526004018080602001828103825260258152602001807f436f6e74726163742069732063757272656e746c79206e6f74206f706572617481526020017f696f6e616c00000000000000000000000000000000000000000000000000000081525060400191505060405180910390fd5b6001600360003373ffffffffffffffffffffffffffffffffffffffff1673ffffffffffffffffffffffffffffffffffffffff16815260200190815260200160002054141515611dc6576040517f08c379a000000000000000000000000000000000000000000000000000000000815260040180806020018281038252601a8152602001807f4e6f7420616e20617574686f72697a656420636f6e747261637400000000000081525060200191505060405180910390fd5b6008600085600019166000191681526020019081526020016000206080604051908101604052808573ffffffffffffffffffffffffffffffffffffffff168152602001848152602001838152602001600015158152509080600181540180825580915050906001820390600052602060002090600402016000909192909190915060008201518160000160006101000a81548173ffffffffffffffffffffffffffffffffffffffff021916908373ffffffffffffffffffffffffffffffffffffffff160217905550602082015181600101556040820151816002015560608201518160030160006101000a81548160ff02191690831515021790555050505050505050565b6060600460008373ffffffffffffffffffffffffffffffffffffffff1673ffffffffffffffffffffffffffffffffffffffff1681526020019081526020016000206000018054600181600116156101000203166002900480601f016020809104026020016040519081016040528092919081815260200182805460018160011615610100020316600290048015611fa35780601f10611f7857610100808354040283529160200191611fa3565b820191906000526020600020905b815481529060010190602001808311611f8657829003601f168201915b50505050509050919050565b600160009054906101000a900473ffffffffffffffffffffffffffffffffffffffff1673ffffffffffffffffffffffffffffffffffffffff163373ffffffffffffffffffffffffffffffffffffffff16141515612074576040517f08c379a000000000000000000000000000000000000000000000000000000000815260040180806020018281038252601c8152602001807f43616c6c6572206973206e6f7420636f6e7472616374206f776e65720000000081525060200191505060405180910390fd5b6001600360008373ffffffffffffffffffffffffffffffffffffffff1673ffffffffffffffffffffffffffffffffffffffff1681526020019081526020016000208190555050565b600160009054906101000a900473ffffffffffffffffffffffffffffffffffffffff1673ffffffffffffffffffffffffffffffffffffffff163373ffffffffffffffffffffffffffffffffffffffff16141515612181576040517f08c379a000000000000000000000000000000000000000000000000000000000815260040180806020018281038252601c8152602001807f43616c6c6572206973206e6f7420636f6e7472616374206f776e65720000000081525060200191505060405180910390fd5b600360008273ffffffffffffffffffffffffffffffffffffffff1673ffffffffffffffffffffffffffffffffffffffff1681526020019081526020016000206000905550565b60096020528060005260406000206000915090505481565b600060066000836000191660001916815260200190815260200160002060010160009054906101000a900460ff169050919050565b6000600960008373ffffffffffffffffffffffffffffffffffffffff1673ffffffffffffffffffffffffffffffffffffffff168152602001908152602001600020549050919050565b6000600460008373ffffffffffffffffffffffffffffffffffffffff1673ffffffffffffffffffffffffffffffffffffffff16815260200190815260200160002060010160019054906101000a900460ff169050919050565b6000600460008373ffffffffffffffffffffffffffffffffffffffff1673ffffffffffffffffffffffffffffffffffffffff16815260200190815260200160002060010160009054906101000a900460ff169050919050565b6060600580548060200260200160405190810160405280929190818152602001828054801561239357602002820191906000526020600020905b8160009054906101000a900473ffffffffffffffffffffffffffffffffffffffff1673ffffffffffffffffffffffffffffffffffffffff1681526020019060010190808311612349575b5050505050905090565b6000600160149054906101000a900460ff16905090565b600060606000600860008660001916600019168152602001908152602001600020805480602002602001604051908101604052809291908181526020016000905b828210156124ad5783829060005260206000209060040201608060405190810160405290816000820160009054906101000a900473ffffffffffffffffffffffffffffffffffffffff1673ffffffffffffffffffffffffffffffffffffffff1673ffffffffffffffffffffffffffffffffffffffff16815260200160018201548152602001600282015481526020016003820160009054906101000a900460ff161515151581525050815260200190600101906123f5565b505050509150600090505b8151811015612526578373ffffffffffffffffffffffffffffffffffffffff1682828151811015156124e657fe5b906020019060200201516000015173ffffffffffffffffffffffffffffffffffffffff161415612519576001925061252b565b80806001019150506124b8565b600092505b505092915050565b61253b61239d565b15156125d5576040517f08c379a00000000000000000000000000000000000000000000000000000000081526004018080602001828103825260258152602001807f436f6e74726163742069732063757272656e746c79206e6f74206f706572617481526020017f696f6e616c00000000000000000000000000000000000000000000000000000081525060400191505060405180910390fd5b6001600360003373ffffffffffffffffffffffffffffffffffffffff1673ffffffffffffffffffffffffffffffffffffffff1681526020019081526020016000205414151561268c576040517f08c379a000000000000000000000000000000000000000000000000000000000815260040180806020018281038252601a8152602001807f4e6f7420616e20617574686f72697a656420636f6e747261637400000000000081525060200191505060405180910390fd5b6001600460008373ffffffffffffffffffffffffffffffffffffffff1673ffffffffffffffffffffffffffffffffffffffff16815260200190815260200160002060010160006101000a81548160ff0219169083151502179055507f9a2d81d28111af1887d9d96ea1698bd62c32fe1fd1636068e25c41b596fd6f0e600460008373ffffffffffffffffffffffffffffffffffffffff1673ffffffffffffffffffffffffffffffffffffffff1681526020019081526020016000206000018260405180806020018373ffffffffffffffffffffffffffffffffffffffff1673ffffffffffffffffffffffffffffffffffffffff1681526020018281038252848181546001816001161561010002031660029004815260200191508054600181600116156101000203166002900480156128065780601f106127db57610100808354040283529160200191612806565b820191906000526020600020905b8154815290600101906020018083116127e957829003601f168201915b5050935050505060405180910390a150565b6000612822612d09565b600061282c61239d565b15156128c6576040517f08c379a00000000000000000000000000000000000000000000000000000000081526004018080602001828103825260258152602001807f436f6e74726163742069732063757272656e746c79206e6f74206f706572617481526020017f696f6e616c00000000000000000000000000000000000000000000000000000081525060400191505060405180910390fd5b6001600360003373ffffffffffffffffffffffffffffffffffffffff1673ffffffffffffffffffffffffffffffffffffffff1681526020019081526020016000205414151561297d576040517f08c379a000000000000000000000000000000000000000000000000000000000815260040180806020018281038252601a8152602001807f4e6f7420616e20617574686f72697a656420636f6e747261637400000000000081525060200191505060405180910390fd5b600092505b60086000856000191660001916815260200190815260200160002080549050831015612b9157600860008560001916600019168152602001908152602001600020838154811015156129d057fe5b9060005260206000209060040201608060405190810160405290816000820160009054906101000a900473ffffffffffffffffffffffffffffffffffffffff1673ffffffffffffffffffffffffffffffffffffffff1673ffffffffffffffffffffffffffffffffffffffff16815260200160018201548152602001600282015481526020016003820160009054906101000a900460ff161515151581525050915060001515826060015115151415612b84576001826060019015159081151581525050612ac16064612ab384604001518560200151612b9790919063ffffffff16565b612bd590919063ffffffff16565b90508060096000846000015173ffffffffffffffffffffffffffffffffffffffff1673ffffffffffffffffffffffffffffffffffffffff168152602001908152602001600020600082825401925050819055507f868591bb2b953c2ab9230c3d982fc24b5b255e5d8d9bcd0c1a5e6ad5cddccab6826000015182604051808373ffffffffffffffffffffffffffffffffffffffff1673ffffffffffffffffffffffffffffffffffffffff1681526020018281526020019250505060405180910390a15b8280600101935050612982565b50505050565b6000806000841415612bac5760009150612bce565b8284029050828482811515612bbd57fe5b04141515612bca57600080fd5b8091505b5092915050565b600080600083111515612be757600080fd5b8284811515612bf257fe5b0490508091505092915050565b828054600181600116156101000203166002900490600052602060002090601f016020900481019282601f10612c4057805160ff1916838001178555612c6e565b82800160010185558215612c6e579182015b82811115612c6d578251825591602001919060010190612c52565b5b509050612c7b9190612d4a565b5090565b828054828255906000526020600020908101928215612cf8579160200282015b82811115612cf75782518260006101000a81548173ffffffffffffffffffffffffffffffffffffffff021916908373ffffffffffffffffffffffffffffffffffffffff16021790555091602001919060010190612c9f565b5b509050612d059190612d6f565b5090565b608060405190810160405280600073ffffffffffffffffffffffffffffffffffffffff16815260200160008152602001600081526020016000151581525090565b612d6c91905b80821115612d68576000816000905550600101612d50565b5090565b90565b612daf91905b80821115612dab57600081816101000a81549073ffffffffffffffffffffffffffffffffffffffff021916905550600101612d75565b5090565b905600a165627a7a72305820fff627fdc0f696b4d1ab6d0bdb8b9bbed94af4908f1dd75530581de59612cb730029",
  "source": "pragma solidity ^0.4.24;\n\nimport \"../node_modules/openzeppelin-solidity/contracts/math/SafeMath.sol\";\n\ncontract FlightSuretyData {\n  using SafeMath for uint256;\n\n  /********************************************************************************************/\n  /*                                       DATA VARIABLES                                     */\n  /********************************************************************************************/\nuint256 private enabled = block.timestamp;\n  // Account used to deploy contract\n  address private contractOwner;\n  uint8 private constant STATUS_CODE_LATE = 20;\n  uint8 private constant STATUS_CODE_UNKNOWN = 0;\n  uint constant MULTI_CONSENSUS_COUNT = 1;\n\n\n  // Blocks all state changes throughout the contract if false                                    \n  bool private operational = true;  \n    address[] multiConsensus = new address[](0);\n\n  // Restrict data contract callers\n  mapping(address => uint256) private authorizedContracts;\n\n// Flights\n  struct AirlineFlight {\n    string flight;\n    bool isRegistered;\n    uint8 statusCode; \n    uint256 flightTimeStamp;\n    address airline;    \n    string from;\n    string to;\n  }\n\n\n  // Airlines\n  struct Airline {\n    string name;\n    bool hasPaid;\n    bool isRegistered;\n  }\n  mapping(address => Airline) private airlines;\n  address[] registeredAirlines = new address[](0);\n\n  \n  mapping(bytes32 => AirlineFlight) private flights;\n  bytes32[] registeredFlights = new bytes32[](0);\n\n  struct Insurance \n  {    \n    address passenger;\n    uint256 amount; \n    uint256 multiplier; \n    bool isCredited;\n  }\n  \n  mapping (bytes32 => Insurance[]) passengersInsurancePerFlight;  \n  mapping (address => uint) public pendingPayments;\n\n  /********************************************************************************************/\n  /*                                       CONSTRUCTOR                                        */\n  /********************************************************************************************/\n\n  /**\n  * @dev Constructor\n  *      The deploying account becomes contractOwner\n  */\n  constructor(string memory firstAirlineName, address firstAirlineAddress) public {\n    \n    contractOwner = msg.sender;\n  \n    // First airline initialization\n    airlines[firstAirlineAddress] = Airline({\n      name: firstAirlineName,\n      hasPaid: false, \n      isRegistered: true\n    });\n\n    //push to the array\n    registeredAirlines.push(firstAirlineAddress);\n  }\n\n  function deauthorizeContract(address contractAddress) external requireContractOwner {\n    delete authorizedContracts[contractAddress];\n  }\n\n    function authorizeContract(address contractAddress) external requireContractOwner {\n    authorizedContracts[contractAddress] = 1;\n  }\n\n  /********************************************************************************************/\n  /*                                       MODIFIERS                                 */\n  /********************************************************************************************/\n  \n  modifier requireIsOperational() {\n    require(isOperational(), \"Contract is currently not operational\");\n    _;  \n  }\n\n  /**\n   * @dev Modifier that requires the \"ContractOwner\" account to be the function caller\n   */\n  modifier requireContractOwner() {\n    require(msg.sender == contractOwner, \"Caller is not contract owner\");\n    _;\n  }\n\n  /**\n   * @dev Modifier that requires airline to be paid\n   */\n  modifier requireHasAirlinePaid(address airline) {\n    require(this.isPaidAirline(airline), \"Only existing and paid airlines are allowed to participate\");\n    _;\n  }\n  \n  /**\n   * @dev Modifier that requires function caller to be authorized\n   */\n  modifier requireIsContractAuthorized() {\n    require(authorizedContracts[msg.sender] == 1, \"Not an authorized contract\");\n    _;\n  }  \n\n\n  /**\n   * @dev Modifier that requires address to be valid\n   */\n  modifier requireValidAddress(address addr) {\n    require(addr != address(0), \"require a valid address\");\n    _;\n  }\n\n  modifier requireIsAirlineRegistered(address addr)\n  {\n    require(!airlines[addr].isRegistered, \"Airline has already been registered\");\n    _;\n  }\n\nmodifier requirePendingPaymentAmount(address passenger)\n{\n    require(pendingPayments[passenger] > 0, \"Fund is not enought for withdrawal\");\n    _;\n}\n  \n  \nmodifier isNewStatus(bool status)\n{\n  require(status != operational, \"status must be different\");\n  _;\n}\n\nmodifier isDupCall()\n{\n   bool isDuplicate = false;\n\n    for(uint i = 0; i < multiConsensus.length; i++) \n    {\n      if (multiConsensus[i] == msg.sender) \n      {\n        isDuplicate = true;\n        break;\n      }\n    }\n\n    require(!isDuplicate, \"Caller has already called this function.\");\n    _;\n}\n\n  /********************************************************************************************/\n  /*                                       EVENT DEFINITIONS                                  */\n  /********************************************************************************************/\n\n  event AirlinePaid(string name, address addr);\n  event AirlineRegistered(string name, address addr);\n  event InsureeCredited(address passenger, uint256 amount);\n  event InsuranceBought(address airline, string flight, uint256 timestamp, address passenger, uint256 amount, uint256 multiplier);\n  event FlightStatusUpdated(address airline, string flight, uint256 timestamp, uint8 statusCode);  \n  event AccountWithdrawn(address passenger, uint256 amount);\n  event FlightRegistered(address airline, string flight, string from, string to, uint256 timestamp);\n\n  /********************************************************************************************/\n  /*                                       UTILITY FUNCTIONS                                  */\n  /********************************************************************************************/\n\n  function isOperational() public view returns(bool) {\n    return operational;\n  }\n\n\n  function getAirlineName(address airline) external view returns(string memory) {\n    return airlines[airline].name;\n  }\n\n\n  function isRegisteredAirline(address airline) external view returns(bool) {\n    return airlines[airline].isRegistered;\n  }\n\n\n  function isPaidAirline(address airline) external view returns(bool) {\n    return airlines[airline].hasPaid;\n  }\n\n\n  function getRegisteredAirlines() external view returns(address[] memory) {\n    return registeredAirlines;\n  }\n\n function isInsured(bytes32 key, address passenger) external view returns (bool) \n {\n    Insurance[] memory insuredPassengers = passengersInsurancePerFlight[key];\n    \n    for(uint i = 0; i < insuredPassengers.length; i++) \n    {\n      if (insuredPassengers[i].passenger == passenger) \n      {\n        return true;\n      }\n    }\n\n    return false;\n  }\n\n  \n  function isRegisteredFlight(bytes32 key) external view returns(bool) \n  {\n    return flights[key].isRegistered;\n  }  \n\n\n  /**\n   * @dev Return the pending payment\n   */\n  function getPendingPaymentAmount(address passenger) external view returns (uint256) {\n    return pendingPayments[passenger];\n  }\n\n\n  function setOperatingStatus(bool status) \n    isDupCall\n    isNewStatus(status)\n    requireContractOwner \n    external \n  {    \n    multiConsensus.push(msg.sender);\n\n    if (multiConsensus.length >= MULTI_CONSENSUS_COUNT) \n    {\n      operational = status;\n      multiConsensus = new address[](0);\n    }\n  }\n\n\n  \n\n\n  /********************************************************************************************/\n  /*                                     SMART CONTRACT FUNCTIONS                             */\n  /********************************************************************************************/\n\n  /**\n   * @dev Add an airline to the registration queue\n   *      Can only be called from FlightSuretyApp contract\n   */\n  function registerAirline(string  name, address addr) external \n  requireIsOperational \n  requireIsContractAuthorized \n  requireValidAddress(addr) \n  requireIsAirlineRegistered(addr)\n  returns(bool success) \n  {\n    airlines[addr] = Airline({\n      name: name,\n      hasPaid: false, \n      isRegistered: true\n    });\n\n    registeredAirlines.push(addr);\n    return true;    \n  }\n\n  /**\n   * @dev Submit funding for airline\n   */   \n  function payAirline(address addr) external requireIsOperational requireIsContractAuthorized {\n    airlines[addr].hasPaid = true;\n    emit AirlinePaid(airlines[addr].name, addr);\n  }\n\n  /**\n   * @dev Register a flight\n   */\n  function registerFlight(address airline, string  flight, string  from, string  to, uint256 timestamp, bytes32 key) \n  external requireIsOperational \n  requireIsContractAuthorized \n  requireValidAddress(airline) \n  requireHasAirlinePaid(airline) \n  {\n  \n  require(!flights[key].isRegistered, \"AirlineFlight is registered already\");\n\n    flights[key] = AirlineFlight({\n      isRegistered: true,      \n      airline: airline,\n      flight: flight,\n      statusCode: 0,\n      flightTimeStamp: timestamp,\n      from: from,\n      to: to\n    });\n\n    registeredFlights.push(key);\n\n    emit FlightRegistered(airline, flight, from, to, timestamp);\n  }\n\n  \n  /**\n   * @dev Buy insurance for a flight\n   */   \n  function purchase(bytes32 key, address passenger, uint256 amount, uint256 multiplier) external requireIsOperational requireIsContractAuthorized {   \n\n    passengersInsurancePerFlight[key].push(Insurance({\n      isCredited: false,\n      amount: amount,\n      multiplier: multiplier,\n      passenger: passenger    \n    }));\n  }\n\n  /**\n   * @dev Credits payouts to insurees\n   */\n  function payInsureeBack(bytes32 flightKey) \n  internal \n  requireIsOperational \n  requireIsContractAuthorized {\n\n    for (uint index = 0; index < passengersInsurancePerFlight[flightKey].length; index++) \n    {\n      Insurance memory insurance = passengersInsurancePerFlight[flightKey][index];\n\n      if (insurance.isCredited == false) {\n        insurance.isCredited = true;        \n        uint256 amount = insurance.amount.mul(insurance.multiplier).div(100);               \n        pendingPayments[insurance.passenger] += amount;\n        emit InsureeCredited(insurance.passenger, amount);\n      }\n    }\n  }\n\n  \n  function processFlightStatus(bytes32 flightKey, uint8 statusCode) external requireIsOperational requireIsContractAuthorized {    \n    if (flights[flightKey].statusCode == STATUS_CODE_UNKNOWN) {\n      flights[flightKey].statusCode = statusCode;\n\n      if(statusCode == STATUS_CODE_LATE) \n      {\n        payInsureeBack(flightKey);\n      }\n    }\n  }\n\n\n  /**\n   * @dev Transfers eligible payout funds to insuree\n   */\n\n  function pay(address passenger) \n  external \n  requireIsOperational \n  requireIsContractAuthorized \n  requirePendingPaymentAmount(passenger)\n  {    \n    uint256 amount = pendingPayments[passenger];\n    pendingPayments[passenger] = 0;\n    address(uint160(passenger)).transfer(amount);\n    emit AccountWithdrawn(passenger, amount);\n  }\n    \n  function fund() public payable requireIsOperational {\n  }\n\n\n  /**\n   * @dev Fallback function for funding smart contract.\n   */\n  function() external payable {\n    fund();\n  }\n}",
  "sourcePath": "C:\\Project\\FlightSuretyReact\\smart-contract\\contracts\\FlightSuretyData.sol",
  "compiler": {
    "name": "solc",
    "version": "0.4.26+commit.4563c3fc.Emscripten.clang"
  },
  "schemaVersion": "3.4.3",
  "updatedAt": "2021-10-15T21:44:49.800Z",
  "networkType": "ethereum",
  "devdoc": {
    "methods": {
      "getPendingPaymentAmount(address)": {
        "details": "Return the pending payment"
      },
      "pay(address)": {
        "details": "Transfers eligible payout funds to insuree"
      },
      "payAirline(address)": {
        "details": "Submit funding for airline"
      },
      "purchase(bytes32,address,uint256,uint256)": {
        "details": "Buy insurance for a flight"
      },
      "registerAirline(string,address)": {
        "details": "Add an airline to the registration queue     Can only be called from FlightSuretyApp contract"
      },
      "registerFlight(address,string,string,string,uint256,bytes32)": {
        "details": "Register a flight"
      }
    }
  },
  "userdoc": {
    "methods": {
      "isOperational()": {
        "notice": "*****************************************************************************************"
      }
    }
  }
}