{
  "contractName": "FlightSuretyApp",
  "abi": [
    {
      "constant": true,
      "inputs": [],
      "name": "REGISTRATION_FEE",
      "outputs": [
        {
          "name": "",
          "type": "uint256"
        }
      ],
      "payable": false,
      "stateMutability": "view",
      "type": "function"
    },
    {
      "inputs": [
        {
          "name": "dataContract",
          "type": "address"
        }
      ],
      "payable": false,
      "stateMutability": "nonpayable",
      "type": "constructor"
    },
    {
      "anonymous": false,
      "inputs": [
        {
          "indexed": false,
          "name": "name",
          "type": "string"
        },
        {
          "indexed": false,
          "name": "addr",
          "type": "address"
        },
        {
          "indexed": false,
          "name": "success",
          "type": "bool"
        },
        {
          "indexed": false,
          "name": "votes",
          "type": "uint256"
        }
      ],
      "name": "AirlineRegistered",
      "type": "event"
    },
    {
      "anonymous": false,
      "inputs": [
        {
          "indexed": false,
          "name": "addr",
          "type": "address"
        },
        {
          "indexed": false,
          "name": "amount",
          "type": "uint256"
        }
      ],
      "name": "AirlinePaid",
      "type": "event"
    },
    {
      "anonymous": false,
      "inputs": [
        {
          "indexed": false,
          "name": "airline",
          "type": "address"
        },
        {
          "indexed": false,
          "name": "flight",
          "type": "string"
        },
        {
          "indexed": false,
          "name": "from",
          "type": "string"
        },
        {
          "indexed": false,
          "name": "to",
          "type": "string"
        },
        {
          "indexed": false,
          "name": "timestamp",
          "type": "uint256"
        }
      ],
      "name": "FlightRegistered",
      "type": "event"
    },
    {
      "anonymous": false,
      "inputs": [
        {
          "indexed": false,
          "name": "airline",
          "type": "address"
        },
        {
          "indexed": false,
          "name": "flight",
          "type": "string"
        },
        {
          "indexed": false,
          "name": "timestamp",
          "type": "uint256"
        },
        {
          "indexed": false,
          "name": "passenger",
          "type": "address"
        },
        {
          "indexed": false,
          "name": "amount",
          "type": "uint256"
        },
        {
          "indexed": false,
          "name": "multiplier",
          "type": "uint256"
        }
      ],
      "name": "InsurancePurchased",
      "type": "event"
    },
    {
      "anonymous": false,
      "inputs": [
        {
          "indexed": false,
          "name": "airline",
          "type": "address"
        },
        {
          "indexed": false,
          "name": "flight",
          "type": "string"
        },
        {
          "indexed": false,
          "name": "timestamp",
          "type": "uint256"
        },
        {
          "indexed": false,
          "name": "status",
          "type": "uint8"
        }
      ],
      "name": "FlightStatusInfo",
      "type": "event"
    },
    {
      "anonymous": false,
      "inputs": [
        {
          "indexed": false,
          "name": "airline",
          "type": "address"
        },
        {
          "indexed": false,
          "name": "flight",
          "type": "string"
        },
        {
          "indexed": false,
          "name": "timestamp",
          "type": "uint256"
        },
        {
          "indexed": false,
          "name": "status",
          "type": "uint8"
        }
      ],
      "name": "OracleReport",
      "type": "event"
    },
    {
      "anonymous": false,
      "inputs": [
        {
          "indexed": false,
          "name": "index",
          "type": "uint8"
        },
        {
          "indexed": false,
          "name": "airline",
          "type": "address"
        },
        {
          "indexed": false,
          "name": "flight",
          "type": "string"
        },
        {
          "indexed": false,
          "name": "timestamp",
          "type": "uint256"
        }
      ],
      "name": "OracleRequest",
      "type": "event"
    },
    {
      "constant": true,
      "inputs": [],
      "name": "isOperational",
      "outputs": [
        {
          "name": "",
          "type": "bool"
        }
      ],
      "payable": false,
      "stateMutability": "view",
      "type": "function"
    },
    {
      "constant": false,
      "inputs": [
        {
          "name": "name",
          "type": "string"
        },
        {
          "name": "addr",
          "type": "address"
        }
      ],
      "name": "registerAirline",
      "outputs": [
        {
          "name": "success",
          "type": "bool"
        },
        {
          "name": "votes",
          "type": "uint256"
        }
      ],
      "payable": false,
      "stateMutability": "nonpayable",
      "type": "function"
    },
    {
      "constant": false,
      "inputs": [
        {
          "name": "flight",
          "type": "string"
        },
        {
          "name": "from",
          "type": "string"
        },
        {
          "name": "to",
          "type": "string"
        },
        {
          "name": "timestamp",
          "type": "uint256"
        }
      ],
      "name": "registerFlight",
      "outputs": [],
      "payable": false,
      "stateMutability": "nonpayable",
      "type": "function"
    },
    {
      "constant": true,
      "inputs": [
        {
          "name": "airline",
          "type": "address"
        },
        {
          "name": "flight",
          "type": "string"
        },
        {
          "name": "timestamp",
          "type": "uint256"
        }
      ],
      "name": "isRegisteredFlight",
      "outputs": [
        {
          "name": "",
          "type": "bool"
        }
      ],
      "payable": false,
      "stateMutability": "view",
      "type": "function"
    },
    {
      "constant": true,
      "inputs": [
        {
          "name": "passenger",
          "type": "address"
        },
        {
          "name": "airline",
          "type": "address"
        },
        {
          "name": "flight",
          "type": "string"
        },
        {
          "name": "timestamp",
          "type": "uint256"
        }
      ],
      "name": "isInsured",
      "outputs": [
        {
          "name": "",
          "type": "bool"
        }
      ],
      "payable": false,
      "stateMutability": "view",
      "type": "function"
    },
    {
      "constant": false,
      "inputs": [
        {
          "name": "airline",
          "type": "address"
        },
        {
          "name": "flight",
          "type": "string"
        },
        {
          "name": "timestamp",
          "type": "uint256"
        }
      ],
      "name": "purchaseInsurance",
      "outputs": [],
      "payable": true,
      "stateMutability": "payable",
      "type": "function"
    },
    {
      "constant": false,
      "inputs": [],
      "name": "payAirline",
      "outputs": [],
      "payable": true,
      "stateMutability": "payable",
      "type": "function"
    },
    {
      "constant": false,
      "inputs": [
        {
          "name": "airline",
          "type": "address"
        },
        {
          "name": "flight",
          "type": "string"
        },
        {
          "name": "timestamp",
          "type": "uint256"
        }
      ],
      "name": "fetchFlightStatus",
      "outputs": [],
      "payable": false,
      "stateMutability": "nonpayable",
      "type": "function"
    },
    {
      "constant": false,
      "inputs": [
        {
          "name": "passenger",
          "type": "address"
        }
      ],
      "name": "getPendingPaymentAmount",
      "outputs": [
        {
          "name": "",
          "type": "uint256"
        }
      ],
      "payable": false,
      "stateMutability": "nonpayable",
      "type": "function"
    },
    {
      "constant": false,
      "inputs": [],
      "name": "refund",
      "outputs": [],
      "payable": false,
      "stateMutability": "nonpayable",
      "type": "function"
    },
    {
      "constant": true,
      "inputs": [],
      "name": "getMyIndexes",
      "outputs": [
        {
          "name": "",
          "type": "uint8[3]"
        }
      ],
      "payable": false,
      "stateMutability": "view",
      "type": "function"
    },
    {
      "constant": false,
      "inputs": [],
      "name": "registerOracle",
      "outputs": [],
      "payable": true,
      "stateMutability": "payable",
      "type": "function"
    },
    {
      "constant": false,
      "inputs": [
        {
          "name": "index",
          "type": "uint8"
        },
        {
          "name": "airline",
          "type": "address"
        },
        {
          "name": "flight",
          "type": "string"
        },
        {
          "name": "timestamp",
          "type": "uint256"
        },
        {
          "name": "statusCode",
          "type": "uint8"
        }
      ],
      "name": "submitOracleResponse",
      "outputs": [],
      "payable": false,
      "stateMutability": "nonpayable",
      "type": "function"
    }
  ],
  "bytecode": "0x60806040526000600260146101000a81548160ff021916908360ff16021790555034801561002c57600080fd5b5060405160208061422383398101806040528101908080519060200190929190505050336000806101000a81548173ffffffffffffffffffffffffffffffffffffffff021916908373ffffffffffffffffffffffffffffffffffffffff16021790555080600260006101000a81548173ffffffffffffffffffffffffffffffffffffffff021916908373ffffffffffffffffffffffffffffffffffffffff16021790555050614143806100e06000396000f3006080604052600436106100d0576000357c0100000000000000000000000000000000000000000000000000000000900463ffffffff1680630e2c4129146100d5578063339d25901461017d578063590e1ae3146101875780635f1cc0e61461019e57806364b4f751146101f15780638855d7a71461021c578063a283fd0014610291578063a9279ed8146102e8578063c10f270014610340578063c19b4fae146103bf578063c1d37a0e1461048a578063cd905dff14610494578063eeecdd7b146104c3578063f83f11c01461056e575b600080fd5b3480156100e157600080fd5b5061015c600480360381019080803590602001908201803590602001908080601f0160208091040260200160405190810160405280939291908181526020018383808284378201915050505050509192919290803573ffffffffffffffffffffffffffffffffffffffff1690602001909291905050506105d3565b60405180831515151581526020018281526020019250505060405180910390f35b6101856111df565b005b34801561019357600080fd5b5061019c611462565b005b3480156101aa57600080fd5b506101b3611694565b6040518082600360200280838360005b838110156101de5780820151818401526020810190506101c3565b5050505090500191505060405180910390f35b3480156101fd57600080fd5b50610206611964565b6040518082815260200191505060405180910390f35b34801561022857600080fd5b5061028f60048036038101908080359060200190820180359060200191909192939192939080359060200190820180359060200191909192939192939080359060200190820180359060200191909192939192939080359060200190929190505050611970565b005b34801561029d57600080fd5b506102d2600480360381019080803573ffffffffffffffffffffffffffffffffffffffff169060200190929190505050611f4f565b6040518082815260200191505060405180910390f35b61033e600480360381019080803573ffffffffffffffffffffffffffffffffffffffff16906020019092919080359060200190820180359060200191909192939192939080359060200190929190505050612050565b005b34801561034c57600080fd5b506103bd600480360381019080803560ff169060200190929190803573ffffffffffffffffffffffffffffffffffffffff16906020019092919080359060200190820180359060200191909192939192939080359060200190929190803560ff1690602001909291905050506126c1565b005b3480156103cb57600080fd5b50610470600480360381019080803573ffffffffffffffffffffffffffffffffffffffff169060200190929190803573ffffffffffffffffffffffffffffffffffffffff169060200190929190803590602001908201803590602001908080601f016020809104026020016040519081016040528093929190818152602001838380828437820191505050505050919291929080359060200190929190505050612e34565b604051808215151515815260200191505060405180910390f35b6104926130ad565b005b3480156104a057600080fd5b506104a9613432565b604051808215151515815260200191505060405180910390f35b3480156104cf57600080fd5b50610554600480360381019080803573ffffffffffffffffffffffffffffffffffffffff169060200190929190803590602001908201803590602001908080601f0160208091040260200160405190810160405280939291908181526020018383808284378201915050505050509192919290803590602001909291905050506134fa565b604051808215151515815260200191505060405180910390f35b34801561057a57600080fd5b506105d1600480360381019080803573ffffffffffffffffffffffffffffffffffffffff169060200190929190803590602001908201803590602001919091929391929390803590602001909291905050506135e3565b005b6000806000606084600073ffffffffffffffffffffffffffffffffffffffff168173ffffffffffffffffffffffffffffffffffffffff1614151515610680576040517f08c379a000000000000000000000000000000000000000000000000000000000815260040180806020018281038252600f8152602001807f496e76616c69642061646472657373000000000000000000000000000000000081525060200191505060405180910390fd5b33600260009054906101000a900473ffffffffffffffffffffffffffffffffffffffff1673ffffffffffffffffffffffffffffffffffffffff1663bf3c0d7a826040518263ffffffff167c0100000000000000000000000000000000000000000000000000000000028152600401808273ffffffffffffffffffffffffffffffffffffffff1673ffffffffffffffffffffffffffffffffffffffff168152602001915050602060405180830381600087803b15801561073e57600080fd5b505af1158015610752573d6000803e3d6000fd5b505050506040513d602081101561076857600080fd5b810190808051906020019092919050505015156107ed576040517f08c379a000000000000000000000000000000000000000000000000000000000815260040180806020018281038252601e8152602001807f4f6e6c792070616964206169726c696e65732061726520616c6c6f776564000081525060200191505060405180910390fd5b600260009054906101000a900473ffffffffffffffffffffffffffffffffffffffff1673ffffffffffffffffffffffffffffffffffffffff1663cd905dff6040518163ffffffff167c0100000000000000000000000000000000000000000000000000000000028152600401602060405180830381600087803b15801561087357600080fd5b505af1158015610887573d6000803e3d6000fd5b505050506040513d602081101561089d57600080fd5b81019080805190602001909291905050501515610948576040517f08c379a000000000000000000000000000000000000000000000000000000000815260040180806020018281038252602a8152602001807f436f6e74726163742069732063757272656e746c79206e6f742076616c69646f81526020017f7065726174696f6e616c0000000000000000000000000000000000000000000081525060400191505060405180910390fd5b8660008060009150600090505b600160008473ffffffffffffffffffffffffffffffffffffffff1673ffffffffffffffffffffffffffffffffffffffff16815260200190815260200160002080549050811015610a5f573373ffffffffffffffffffffffffffffffffffffffff16600160008573ffffffffffffffffffffffffffffffffffffffff1673ffffffffffffffffffffffffffffffffffffffff16815260200190815260200160002082815481101515610a0257fe5b9060005260206000200160009054906101000a900473ffffffffffffffffffffffffffffffffffffffff1673ffffffffffffffffffffffffffffffffffffffff161415610a525760019150610a5f565b8080600101915050610955565b81151515610ad5576040517f08c379a000000000000000000000000000000000000000000000000000000000815260040180806020018281038252601d8152602001807f746869732069732061206475706c696361746564206169726c696e652e00000081525060200191505060405180910390fd5b60009650600260009054906101000a900473ffffffffffffffffffffffffffffffffffffffff1673ffffffffffffffffffffffffffffffffffffffff1663c23bcf096040518163ffffffff167c0100000000000000000000000000000000000000000000000000000000028152600401600060405180830381600087803b158015610b5f57600080fd5b505af1158015610b73573d6000803e3d6000fd5b505050506040513d6000823e3d601f19601f820116820180604052506020811015610b9d57600080fd5b810190808051640100000000811115610bb557600080fd5b82810190506020810184811115610bcb57600080fd5b8151856020820283011164010000000082111715610be857600080fd5b50509291905050509550600086511480610c03575060048651105b15610d7457600260009054906101000a900473ffffffffffffffffffffffffffffffffffffffff1673ffffffffffffffffffffffffffffffffffffffff16630e2c41298c8c6040518363ffffffff167c010000000000000000000000000000000000000000000000000000000002815260040180806020018373ffffffffffffffffffffffffffffffffffffffff1673ffffffffffffffffffffffffffffffffffffffff168152602001828103825284818151815260200191508051906020019080838360005b83811015610ce5578082015181840152602081019050610cca565b50505050905090810190601f168015610d125780820380516001836020036101000a031916815260200191505b509350505050602060405180830381600087803b158015610d3257600080fd5b505af1158015610d46573d6000803e3d6000fd5b505050506040513d6020811015610d5c57600080fd5b81019080805190602001909291905050509650611063565b600160008b73ffffffffffffffffffffffffffffffffffffffff1673ffffffffffffffffffffffffffffffffffffffff1681526020019081526020016000203390806001815401808255809150509060018203906000526020600020016000909192909190916101000a81548173ffffffffffffffffffffffffffffffffffffffff021916908373ffffffffffffffffffffffffffffffffffffffff16021790555050610e2c6002875161384d90919063ffffffff16565b600160008c73ffffffffffffffffffffffffffffffffffffffff1673ffffffffffffffffffffffffffffffffffffffff1681526020019081526020016000208054905010151561106257600260009054906101000a900473ffffffffffffffffffffffffffffffffffffffff1673ffffffffffffffffffffffffffffffffffffffff16630e2c41298c8c6040518363ffffffff167c010000000000000000000000000000000000000000000000000000000002815260040180806020018373ffffffffffffffffffffffffffffffffffffffff1673ffffffffffffffffffffffffffffffffffffffff168152602001828103825284818151815260200191508051906020019080838360005b83811015610f53578082015181840152602081019050610f38565b50505050905090810190601f168015610f805780820380516001836020036101000a031916815260200191505b509350505050602060405180830381600087803b158015610fa057600080fd5b505af1158015610fb4573d6000803e3d6000fd5b505050506040513d6020811015610fca57600080fd5b81019080805190602001909291905050509650600060405190808252806020026020018201604052801561100d5781602001602082028038833980820191505090505b50600160008c73ffffffffffffffffffffffffffffffffffffffff1673ffffffffffffffffffffffffffffffffffffffff1681526020019081526020016000209080519060200190611060929190613f5d565b505b5b7f5830152b09b4f01c34ead661365969a1f6683c57b8d4039a6ec2f3ca64c4274c8b8b89600160008f73ffffffffffffffffffffffffffffffffffffffff1673ffffffffffffffffffffffffffffffffffffffff1681526020019081526020016000208054905060405180806020018573ffffffffffffffffffffffffffffffffffffffff1673ffffffffffffffffffffffffffffffffffffffff16815260200184151515158152602001838152602001828103825286818151815260200191508051906020019080838360005b8381101561114c578082015181840152602081019050611131565b50505050905090810190601f1680156111795780820380516001836020036101000a031916815260200191505b509550505050505060405180910390a186600160008c73ffffffffffffffffffffffffffffffffffffffff1673ffffffffffffffffffffffffffffffffffffffff1681526020019081526020016000208054905098509850505050505050509250929050565b6111e7613fe7565b670de0b6b3a76400003410151515611267576040517f08c379a000000000000000000000000000000000000000000000000000000000815260040180806020018281038252601c8152602001807f526567697374726174696f6e206665652069732072657175697265640000000081525060200191505060405180910390fd5b600260009054906101000a900473ffffffffffffffffffffffffffffffffffffffff1673ffffffffffffffffffffffffffffffffffffffff1663cd905dff6040518163ffffffff167c0100000000000000000000000000000000000000000000000000000000028152600401602060405180830381600087803b1580156112ed57600080fd5b505af1158015611301573d6000803e3d6000fd5b505050506040513d602081101561131757600080fd5b810190808051906020019092919050505015156113c2576040517f08c379a000000000000000000000000000000000000000000000000000000000815260040180806020018281038252602a8152602001807f436f6e74726163742069732063757272656e746c79206e6f742076616c69646f81526020017f7065726174696f6e616c0000000000000000000000000000000000000000000081525060400191505060405180910390fd5b6113cb33613877565b9050604080519081016040528060011515815260200182815250600460003373ffffffffffffffffffffffffffffffffffffffff1673ffffffffffffffffffffffffffffffffffffffff16815260200190815260200160002060008201518160000160006101000a81548160ff02191690831515021790555060208201518160010190600361145b92919061400a565b5090505050565b600260009054906101000a900473ffffffffffffffffffffffffffffffffffffffff1673ffffffffffffffffffffffffffffffffffffffff1663cd905dff6040518163ffffffff167c0100000000000000000000000000000000000000000000000000000000028152600401602060405180830381600087803b1580156114e857600080fd5b505af11580156114fc573d6000803e3d6000fd5b505050506040513d602081101561151257600080fd5b810190808051906020019092919050505015156115bd576040517f08c379a000000000000000000000000000000000000000000000000000000000815260040180806020018281038252602a8152602001807f436f6e74726163742069732063757272656e746c79206e6f742076616c69646f81526020017f7065726174696f6e616c0000000000000000000000000000000000000000000081525060400191505060405180910390fd5b600260009054906101000a900473ffffffffffffffffffffffffffffffffffffffff1673ffffffffffffffffffffffffffffffffffffffff1663fa89401a336040518263ffffffff167c0100000000000000000000000000000000000000000000000000000000028152600401808273ffffffffffffffffffffffffffffffffffffffff1673ffffffffffffffffffffffffffffffffffffffff168152602001915050600060405180830381600087803b15801561167a57600080fd5b505af115801561168e573d6000803e3d6000fd5b50505050565b61169c613fe7565b600260009054906101000a900473ffffffffffffffffffffffffffffffffffffffff1673ffffffffffffffffffffffffffffffffffffffff1663cd905dff6040518163ffffffff167c0100000000000000000000000000000000000000000000000000000000028152600401602060405180830381600087803b15801561172257600080fd5b505af1158015611736573d6000803e3d6000fd5b505050506040513d602081101561174c57600080fd5b810190808051906020019092919050505015156117f7576040517f08c379a000000000000000000000000000000000000000000000000000000000815260040180806020018281038252602a8152602001807f436f6e74726163742069732063757272656e746c79206e6f742076616c69646f81526020017f7065726174696f6e616c0000000000000000000000000000000000000000000081525060400191505060405180910390fd5b600460003373ffffffffffffffffffffffffffffffffffffffff1673ffffffffffffffffffffffffffffffffffffffff16815260200190815260200160002060000160009054906101000a900460ff1615156118bb576040517f08c379a000000000000000000000000000000000000000000000000000000000815260040180806020018281038252601b8152602001807f4e6f74207265676973746572656420617320616e206f7261636c65000000000081525060200191505060405180910390fd5b600460003373ffffffffffffffffffffffffffffffffffffffff1673ffffffffffffffffffffffffffffffffffffffff16815260200190815260200160002060010160038060200260405190810160405280929190826003801561195a576020028201916000905b82829054906101000a900460ff1660ff16815260200190600101906020826000010492830192600103820291508084116119235790505b5050505050905090565b670de0b6b3a764000081565b6000600260009054906101000a900473ffffffffffffffffffffffffffffffffffffffff1673ffffffffffffffffffffffffffffffffffffffff1663cd905dff6040518163ffffffff167c0100000000000000000000000000000000000000000000000000000000028152600401602060405180830381600087803b1580156119f857600080fd5b505af1158015611a0c573d6000803e3d6000fd5b505050506040513d6020811015611a2257600080fd5b81019080805190602001909291905050501515611acd576040517f08c379a000000000000000000000000000000000000000000000000000000000815260040180806020018281038252602a8152602001807f436f6e74726163742069732063757272656e746c79206e6f742076616c69646f81526020017f7065726174696f6e616c0000000000000000000000000000000000000000000081525060400191505060405180910390fd5b33600073ffffffffffffffffffffffffffffffffffffffff168173ffffffffffffffffffffffffffffffffffffffff1614151515611b73576040517f08c379a000000000000000000000000000000000000000000000000000000000815260040180806020018281038252600f8152602001807f496e76616c69642061646472657373000000000000000000000000000000000081525060200191505060405180910390fd5b33600260009054906101000a900473ffffffffffffffffffffffffffffffffffffffff1673ffffffffffffffffffffffffffffffffffffffff1663bf3c0d7a826040518263ffffffff167c0100000000000000000000000000000000000000000000000000000000028152600401808273ffffffffffffffffffffffffffffffffffffffff1673ffffffffffffffffffffffffffffffffffffffff168152602001915050602060405180830381600087803b158015611c3157600080fd5b505af1158015611c45573d6000803e3d6000fd5b505050506040513d6020811015611c5b57600080fd5b81019080805190602001909291905050501515611ce0576040517f08c379a000000000000000000000000000000000000000000000000000000000815260040180806020018281038252601e8152602001807f4f6e6c792070616964206169726c696e65732061726520616c6c6f776564000081525060200191505060405180910390fd5b611d1d338b8b8080601f01602080910402602001604051908101604052809392919081815260200183838082843782019150505050505086613a1d565b9250600260009054906101000a900473ffffffffffffffffffffffffffffffffffffffff1673ffffffffffffffffffffffffffffffffffffffff166308675ea6338c8c8c8c8c8c8c8c6040518a63ffffffff167c0100000000000000000000000000000000000000000000000000000000028152600401808a73ffffffffffffffffffffffffffffffffffffffff1673ffffffffffffffffffffffffffffffffffffffff168152602001806020018060200180602001868152602001856000191660001916815260200184810384528c8c82818152602001925080828437820191505084810383528a8a828181526020019250808284378201915050848103825288888281815260200192508082843782019150509c50505050505050505050505050600060405180830381600087803b158015611e5a57600080fd5b505af1158015611e6e573d6000803e3d6000fd5b505050507f89a9f03eebe04f13795943cbdfd1e43e6326841c8962dde05c51a48a54db5691338b8b8b8b8b8b8b604051808973ffffffffffffffffffffffffffffffffffffffff1673ffffffffffffffffffffffffffffffffffffffff16815260200180602001806020018060200185815260200184810384528b8b82818152602001925080828437820191505084810383528989828181526020019250808284378201915050848103825287878281815260200192508082843782019150509b50505050505050505050505060405180910390a150505050505050505050565b6000600260009054906101000a900473ffffffffffffffffffffffffffffffffffffffff1673ffffffffffffffffffffffffffffffffffffffff1663a283fd00836040518263ffffffff167c0100000000000000000000000000000000000000000000000000000000028152600401808273ffffffffffffffffffffffffffffffffffffffff1673ffffffffffffffffffffffffffffffffffffffff168152602001915050602060405180830381600087803b15801561200e57600080fd5b505af1158015612022573d6000803e3d6000fd5b505050506040513d602081101561203857600080fd5b81019080805190602001909291905050509050919050565b600080341180156120695750670de0b6b3a76400003411155b15156120dd576040517f08c379a00000000000000000000000000000000000000000000000000000000081526004018080602001828103825260178152602001807f496e636f727265637420696e737572616e63652066656500000000000000000081525060200191505060405180910390fd5b8484848080601f01602080910402602001604051908101604052809392919081815260200183838082843782019150505050505083600260009054906101000a900473ffffffffffffffffffffffffffffffffffffffff1673ffffffffffffffffffffffffffffffffffffffff166395deca9d61215b858585613a1d565b6040518263ffffffff167c0100000000000000000000000000000000000000000000000000000000028152600401808260001916600019168152602001915050602060405180830381600087803b1580156121b557600080fd5b505af11580156121c9573d6000803e3d6000fd5b505050506040513d60208110156121df57600080fd5b81019080805190602001909291905050501515612264576040517f08c379a00000000000000000000000000000000000000000000000000000000081526004018080602001828103825260188152602001807f466c69676874206973206e6f742072656769737465726564000000000000000081525060200191505060405180910390fd5b86868080601f01602080910402602001604051908101604052809392919081815260200183838082843782019150505050505085600260009054906101000a900473ffffffffffffffffffffffffffffffffffffffff1673ffffffffffffffffffffffffffffffffffffffff1663ee8bd1d06122e1338585613a1d565b336040518363ffffffff167c01000000000000000000000000000000000000000000000000000000000281526004018083600019166000191681526020018273ffffffffffffffffffffffffffffffffffffffff1673ffffffffffffffffffffffffffffffffffffffff16815260200192505050602060405180830381600087803b15801561236f57600080fd5b505af1158015612383573d6000803e3d6000fd5b505050506040513d602081101561239957600080fd5b8101908080519060200190929190505050151515612445576040517f08c379a000000000000000000000000000000000000000000000000000000000815260040180806020018281038252603b8152602001807f5468697320696e737572616e636520686173206265656e20626f75676874206281526020017f65666f7265206279207468652073616d652070617373656e676572000000000081525060400191505060405180910390fd5b600260009054906101000a900473ffffffffffffffffffffffffffffffffffffffff1673ffffffffffffffffffffffffffffffffffffffff166108fc349081150290604051600060405180830381858888f193505050501580156124ad573d6000803e3d6000fd5b506124eb338a8a8080601f01602080910402602001604051908101604052809392919081815260200183838082843782019150505050505089613a1d565b9550600260009054906101000a900473ffffffffffffffffffffffffffffffffffffffff1673ffffffffffffffffffffffffffffffffffffffff16633e3e1e0487333460966040518563ffffffff167c01000000000000000000000000000000000000000000000000000000000281526004018085600019166000191681526020018473ffffffffffffffffffffffffffffffffffffffff1673ffffffffffffffffffffffffffffffffffffffff168152602001838152602001828152602001945050505050600060405180830381600087803b1580156125cb57600080fd5b505af11580156125df573d6000803e3d6000fd5b505050507f74b0e5ec683105316311209bc47504b2256c36a13ae163ba12913482476d54458a8a8a8a33346096604051808873ffffffffffffffffffffffffffffffffffffffff1673ffffffffffffffffffffffffffffffffffffffff168152602001806020018681526020018573ffffffffffffffffffffffffffffffffffffffff1673ffffffffffffffffffffffffffffffffffffffff168152602001848152602001838152602001828103825288888281815260200192508082843782019150509850505050505050505060405180910390a150505050505050505050565b6000600260009054906101000a900473ffffffffffffffffffffffffffffffffffffffff1673ffffffffffffffffffffffffffffffffffffffff1663cd905dff6040518163ffffffff167c0100000000000000000000000000000000000000000000000000000000028152600401602060405180830381600087803b15801561274957600080fd5b505af115801561275d573d6000803e3d6000fd5b505050506040513d602081101561277357600080fd5b8101908080519060200190929190505050151561281e576040517f08c379a000000000000000000000000000000000000000000000000000000000815260040180806020018281038252602a8152602001807f436f6e74726163742069732063757272656e746c79206e6f742076616c69646f81526020017f7065726174696f6e616c0000000000000000000000000000000000000000000081525060400191505060405180910390fd5b8660ff16600460003373ffffffffffffffffffffffffffffffffffffffff1673ffffffffffffffffffffffffffffffffffffffff168152602001908152602001600020600101600060038110151561287257fe5b602091828204019190069054906101000a900460ff1660ff16148061290157508660ff16600460003373ffffffffffffffffffffffffffffffffffffffff1673ffffffffffffffffffffffffffffffffffffffff16815260200190815260200160002060010160016003811015156128e657fe5b602091828204019190069054906101000a900460ff1660ff16145b8061297657508660ff16600460003373ffffffffffffffffffffffffffffffffffffffff1673ffffffffffffffffffffffffffffffffffffffff168152602001908152602001600020600101600260038110151561295b57fe5b602091828204019190069054906101000a900460ff1660ff16145b1515612a10576040517f08c379a00000000000000000000000000000000000000000000000000000000081526004018080602001828103825260238152602001807f496e64657820646f6573206e6f74206d61746368206f7261636c65207265717581526020017f657374000000000000000000000000000000000000000000000000000000000081525060400191505060405180910390fd5b8686868686604051602001808660ff1660ff167f01000000000000000000000000000000000000000000000000000000000000000281526001018573ffffffffffffffffffffffffffffffffffffffff1673ffffffffffffffffffffffffffffffffffffffff166c010000000000000000000000000281526014018484808284378201915050828152602001955050505050506040516020818303038152906040526040518082805190602001908083835b602083101515612ae75780518252602082019150602081019050602083039250612ac2565b6001836020036101000a0380198251168184511680821785525050505050509050019150506040518091039020905060036000826000191660001916815260200190815260200160002060000160149054906101000a900460ff161515612bdc576040517f08c379a000000000000000000000000000000000000000000000000000000000815260040180806020018281038252602f8152602001807f466c69676874206f722074696d657374616d7020646f206e6f74206d6174636881526020017f206f7261636c652072657175657374000000000000000000000000000000000081525060400191505060405180910390fd5b60036000826000191660001916815260200190815260200160002060010160008360ff1660ff1681526020019081526020016000203390806001815401808255809150509060018203906000526020600020016000909192909190916101000a81548173ffffffffffffffffffffffffffffffffffffffff021916908373ffffffffffffffffffffffffffffffffffffffff160217905550507f43c853095c2752648493c88b4baac4d580d2594ffb00c6f1d4242d844514f7838686868686604051808673ffffffffffffffffffffffffffffffffffffffff1673ffffffffffffffffffffffffffffffffffffffff168152602001806020018481526020018360ff1660ff16815260200182810382528686828181526020019250808284378201915050965050505050505060405180910390a16003806000836000191660001916815260200190815260200160002060010160008460ff1660ff16815260200190815260200160002080549050101515612e2b577fe23f5229de535c091e3b7bec2665f5d698192d3b31393066e8987b7a05076b6c8686868686604051808673ffffffffffffffffffffffffffffffffffffffff1673ffffffffffffffffffffffffffffffffffffffff168152602001806020018481526020018360ff1660ff16815260200182810382528686828181526020019250808284378201915050965050505050505060405180910390a1612e2a8686868080601f0160208091040260200160405190810160405280939291908181526020018383808284378201915050505050508585613b42565b5b50505050505050565b6000600260009054906101000a900473ffffffffffffffffffffffffffffffffffffffff1673ffffffffffffffffffffffffffffffffffffffff1663cd905dff6040518163ffffffff167c0100000000000000000000000000000000000000000000000000000000028152600401602060405180830381600087803b158015612ebc57600080fd5b505af1158015612ed0573d6000803e3d6000fd5b505050506040513d6020811015612ee657600080fd5b81019080805190602001909291905050501515612f91576040517f08c379a000000000000000000000000000000000000000000000000000000000815260040180806020018281038252602a8152602001807f436f6e74726163742069732063757272656e746c79206e6f742076616c69646f81526020017f7065726174696f6e616c0000000000000000000000000000000000000000000081525060400191505060405180910390fd5b600260009054906101000a900473ffffffffffffffffffffffffffffffffffffffff1673ffffffffffffffffffffffffffffffffffffffff1663ee8bd1d0612fda878686613a1d565b876040518363ffffffff167c01000000000000000000000000000000000000000000000000000000000281526004018083600019166000191681526020018273ffffffffffffffffffffffffffffffffffffffff1673ffffffffffffffffffffffffffffffffffffffff16815260200192505050602060405180830381600087803b15801561306857600080fd5b505af115801561307c573d6000803e3d6000fd5b505050506040513d602081101561309257600080fd5b81019080805190602001909291905050509050949350505050565b600260009054906101000a900473ffffffffffffffffffffffffffffffffffffffff1673ffffffffffffffffffffffffffffffffffffffff1663cd905dff6040518163ffffffff167c0100000000000000000000000000000000000000000000000000000000028152600401602060405180830381600087803b15801561313357600080fd5b505af1158015613147573d6000803e3d6000fd5b505050506040513d602081101561315d57600080fd5b81019080805190602001909291905050501515613208576040517f08c379a000000000000000000000000000000000000000000000000000000000815260040180806020018281038252602a8152602001807f436f6e74726163742069732063757272656e746c79206e6f742076616c69646f81526020017f7065726174696f6e616c0000000000000000000000000000000000000000000081525060400191505060405180910390fd5b678ac7230489e8000034141515613287576040517f08c379a000000000000000000000000000000000000000000000000000000000815260040180806020018281038252601f8152602001807f696e76616c69642066756e64696e672076616c7565207375626d69747465640081525060200191505060405180910390fd5b600260009054906101000a900473ffffffffffffffffffffffffffffffffffffffff1673ffffffffffffffffffffffffffffffffffffffff166108fc349081150290604051600060405180830381858888f193505050501580156132ef573d6000803e3d6000fd5b50600260009054906101000a900473ffffffffffffffffffffffffffffffffffffffff1673ffffffffffffffffffffffffffffffffffffffff1663f1494d76336040518263ffffffff167c0100000000000000000000000000000000000000000000000000000000028152600401808273ffffffffffffffffffffffffffffffffffffffff1673ffffffffffffffffffffffffffffffffffffffff168152602001915050600060405180830381600087803b1580156133ad57600080fd5b505af11580156133c1573d6000803e3d6000fd5b505050507f1dcf1446b050e61308e55ea049af89ee81c2b0cbba92f8c16936aa52cb1d0b243334604051808373ffffffffffffffffffffffffffffffffffffffff1673ffffffffffffffffffffffffffffffffffffffff1681526020018281526020019250505060405180910390a1565b6000600260009054906101000a900473ffffffffffffffffffffffffffffffffffffffff1673ffffffffffffffffffffffffffffffffffffffff1663cd905dff6040518163ffffffff167c0100000000000000000000000000000000000000000000000000000000028152600401602060405180830381600087803b1580156134ba57600080fd5b505af11580156134ce573d6000803e3d6000fd5b505050506040513d60208110156134e457600080fd5b8101908080519060200190929190505050905090565b6000600260009054906101000a900473ffffffffffffffffffffffffffffffffffffffff1673ffffffffffffffffffffffffffffffffffffffff166395deca9d613545868686613a1d565b6040518263ffffffff167c0100000000000000000000000000000000000000000000000000000000028152600401808260001916600019168152602001915050602060405180830381600087803b15801561359f57600080fd5b505af11580156135b3573d6000803e3d6000fd5b505050506040513d60208110156135c957600080fd5b810190808051906020019092919050505090509392505050565b6000806135ef33613dfb565b91508186868686604051602001808660ff1660ff167f01000000000000000000000000000000000000000000000000000000000000000281526001018573ffffffffffffffffffffffffffffffffffffffff1673ffffffffffffffffffffffffffffffffffffffff166c010000000000000000000000000281526014018484808284378201915050828152602001955050505050506040516020818303038152906040526040518082805190602001908083835b6020831015156136c857805182526020820191506020810190506020830392506136a3565b6001836020036101000a0380198251168184511680821785525050505050509050019150506040518091039020905060408051908101604052803373ffffffffffffffffffffffffffffffffffffffff1681526020016001151581525060036000836000191660001916815260200190815260200160002060008201518160000160006101000a81548173ffffffffffffffffffffffffffffffffffffffff021916908373ffffffffffffffffffffffffffffffffffffffff16021790555060208201518160000160146101000a81548160ff0219169083151502179055509050507f3ed01f2c3fc24c6b329d931e35b03e390d23497d22b3f90e15b600343e93df118287878787604051808660ff1660ff1681526020018573ffffffffffffffffffffffffffffffffffffffff1673ffffffffffffffffffffffffffffffffffffffff1681526020018060200183815260200182810382528585828181526020019250808284378201915050965050505050505060405180910390a1505050505050565b60008060008311151561385f57600080fd5b828481151561386a57fe5b0490508091505092915050565b61387f613fe7565b613887613fe7565b61389083613dfb565b81600060038110151561389f57fe5b602002019060ff16908160ff16815250508060006003811015156138bf57fe5b60200201518160016003811015156138d357fe5b602002019060ff16908160ff16815250505b8060006003811015156138f457fe5b602002015160ff1681600160038110151561390b57fe5b602002015160ff1614156139475761392283613dfb565b81600160038110151561393157fe5b602002019060ff16908160ff16815250506138e5565b80600160038110151561395657fe5b602002015181600260038110151561396a57fe5b602002019060ff16908160ff16815250505b80600060038110151561398b57fe5b602002015160ff168160026003811015156139a257fe5b602002015160ff1614806139e157508060016003811015156139c057fe5b602002015160ff168160026003811015156139d757fe5b602002015160ff16145b15613a14576139ef83613dfb565b8160026003811015156139fe57fe5b602002019060ff16908160ff168152505061397c565b80915050919050565b6000838383604051602001808473ffffffffffffffffffffffffffffffffffffffff1673ffffffffffffffffffffffffffffffffffffffff166c0100000000000000000000000002815260140183805190602001908083835b602083101515613a9b5780518252602082019150602081019050602083039250613a76565b6001836020036101000a03801982511681845116808217855250505050505090500182815260200193505050506040516020818303038152906040526040518082805190602001908083835b602083101515613b0c5780518252602082019150602081019050602083039250613ae7565b6001836020036101000a038019825116818451168082178552505050505050905001915050604051809103902090509392505050565b600260009054906101000a900473ffffffffffffffffffffffffffffffffffffffff1673ffffffffffffffffffffffffffffffffffffffff1663cd905dff6040518163ffffffff167c0100000000000000000000000000000000000000000000000000000000028152600401602060405180830381600087803b158015613bc857600080fd5b505af1158015613bdc573d6000803e3d6000fd5b505050506040513d6020811015613bf257600080fd5b81019080805190602001909291905050501515613c9d576040517f08c379a000000000000000000000000000000000000000000000000000000000815260040180806020018281038252602a8152602001807f436f6e74726163742069732063757272656e746c79206e6f742076616c69646f81526020017f7065726174696f6e616c0000000000000000000000000000000000000000000081525060400191505060405180910390fd5b600260009054906101000a900473ffffffffffffffffffffffffffffffffffffffff1673ffffffffffffffffffffffffffffffffffffffff1663e7bdde3b858585856040518563ffffffff167c0100000000000000000000000000000000000000000000000000000000028152600401808573ffffffffffffffffffffffffffffffffffffffff1673ffffffffffffffffffffffffffffffffffffffff168152602001806020018481526020018360ff1660ff168152602001828103825285818151815260200191508051906020019080838360005b83811015613d8e578082015181840152602081019050613d73565b50505050905090810190601f168015613dbb5780820380516001836020036101000a031916815260200191505b5095505050505050600060405180830381600087803b158015613ddd57600080fd5b505af1158015613df1573d6000803e3d6000fd5b5050505050505050565b6000806000600a91508160ff166002601481819054906101000a900460ff168092919060010191906101000a81548160ff021916908360ff16021790555060ff16430340856040516020018083600019166000191681526020018273ffffffffffffffffffffffffffffffffffffffff1673ffffffffffffffffffffffffffffffffffffffff166c01000000000000000000000000028152601401925050506040516020818303038152906040526040518082805190602001908083835b602083101515613ede5780518252602082019150602081019050602083039250613eb9565b6001836020036101000a038019825116818451168082178552505050505050905001915050604051809103902060019004811515613f1857fe5b06905060fa600260149054906101000a900460ff1660ff161115613f53576000600260146101000a81548160ff021916908360ff1602179055505b8092505050919050565b828054828255906000526020600020908101928215613fd6579160200282015b82811115613fd55782518260006101000a81548173ffffffffffffffffffffffffffffffffffffffff021916908373ffffffffffffffffffffffffffffffffffffffff16021790555091602001919060010190613f7d565b5b509050613fe391906140a4565b5090565b606060405190810160405280600390602082028038833980820191505090505090565b826003601f016020900481019282156140935791602002820160005b8382111561406457835183826101000a81548160ff021916908360ff1602179055509260200192600101602081600001049283019260010302614026565b80156140915782816101000a81549060ff0219169055600101602081600001049283019260010302614064565b505b5090506140a091906140e7565b5090565b6140e491905b808211156140e057600081816101000a81549073ffffffffffffffffffffffffffffffffffffffff0219169055506001016140aa565b5090565b90565b61411491905b8082111561411057600081816101000a81549060ff0219169055506001016140ed565b5090565b905600a165627a7a7230582029b5203bf26b875fe628f9c0221f7a3cf666fc73a56ad7cb643073bf2d0ce1930029",
  "source": "pragma solidity ^0.4.24;\nimport \"../node_modules/openzeppelin-solidity/contracts/math/SafeMath.sol\";\n\n/************************************************** */\n/* FlightSurety Smart Contract                      */\n/************************************************** */\ncontract FlightSuretyApp {\n    using SafeMath for uint256;\n\n    // contract Owner\n    address private contractOwner;\n\n    mapping(address => address[]) private registeredAirlinesWithVotes;\n\n    // All airlines can register, but to vote other airline, they need to pay 10 ether\n    uint256 constant AIRLINE_FEE = 10 ether;\n\n    // Insurance in percentage\n    uint256 constant INSURANCE_PERCENTAGE_MULTIPLIER = 150;\n\n    // Registration of fifth and subsequent airlines requires consensus of 50% of registered airlines\n    uint256 constant REGISTER_AIRLINE_REGISTRATION_THRESHOLD = 4;\n    uint256 constant MULTI_SIG_CONSENSUS_DIVISOR = 2;\n\n    // Passenger Payment: Passengers may pay up to 1 ether for purchasing flight insurance\n    uint256 constant MAX_PASSENGER_INSURANCE_VALUE = 1 ether;\n\n    FlightSuretyData flightSuretyData;\n\n    /********************************************************************************************/\n    /*                                       CONSTRUCTOR                                        */\n    /********************************************************************************************/\n\n    /**\n     * @dev Contract constructor\n     *\n     */\n    constructor(address dataContract) public {\n        contractOwner = msg.sender;\n\n        flightSuretyData = FlightSuretyData(dataContract);\n    }\n\n    /********************************************************************************************/\n    /*                                       FUNCTION MODIFIERS                                 */\n    /********************************************************************************************/\n\n    /**\n     * @dev Modifier that requires the \"operational\" boolean variable to be \"true\"\n     *      This is used on all state changing functions to pause the contract in\n     *      the event there is an issue that needs to be fixed\n     */\n    modifier requireIsOperational() {\n        // Modify to call data contract's status\n        require(\n            flightSuretyData.isOperational(),\n            \"Contract is currently not validoperational\"\n        );\n        _;\n    }\n\n    /**\n     * @dev Modifier that requires the \"ContractOwner\" account to be the function caller\n     */\n    modifier requireContractOwner() {\n        require(msg.sender == contractOwner, \"Caller is not the owner\");\n        _;\n    }\n\n    /**\n     * @dev Modifier that requires airline to be paid\n     */\n    modifier requireAirlineIsPaid(address airline) {\n        require(flightSuretyData.isPaidAirline(airline), \"Only paid airlines are allowed\");\n        _;\n    }\n\n    /**\n     * @dev Modifier that requires registered airlined to be unique\n     */\n    modifier requireNonDupAirline(address addr) {\n        bool dup = false;\n\n        for (uint256 i = 0; i < registeredAirlinesWithVotes[addr].length; i++) {\n            if (registeredAirlinesWithVotes[addr][i] == msg.sender) {\n                dup = true;\n                break;\n            }\n        }\n\n        require(!dup, \"this is a duplicated airline.\");\n        _;\n    }\n\n    /**\n     * @dev Modifier that requires address to be valid\n     */\n    modifier requireValidAddress(address addr) {\n        require(addr != address(0), \"Invalid address\");\n        _;\n    }\n\n    modifier requireFee() {\n        require(msg.value == AIRLINE_FEE, \"invalid funding value submitted\");\n        _;\n    }\n\n    modifier requireInsuranceFee() {\n        require(\n            msg.value > 0 && msg.value <= MAX_PASSENGER_INSURANCE_VALUE,\n            \"Incorrect insurance fee\"\n        );\n        _;\n    }\n    \n    modifier requireFlightTobeRegistered(\n        address airline,\n        string  flight,\n        uint256 timestamp // requireIsOperational\n    )\n    {\n          require(\n            flightSuretyData.isRegisteredFlight(getFlightKey(airline, flight, timestamp)),\n            \"Flight is not registered\"\n        );\n        _;\n    }\n\n    modifier requireOnlyPassenger(        \n        string  flight,\n        uint256 timestamp // requireIsOperational\n    )\n    {\n          require(\n            !flightSuretyData.isInsured(getFlightKey(msg.sender, flight, timestamp), msg.sender),\n            \"This insurance has been bought before by the same passenger\"\n        );\n        _;\n    }\n\n\n    /********************************************************************************************/\n    /*                                       EVENT DEFINITIONS                                  */\n    /********************************************************************************************/\n\n    event AirlineRegistered(\n        string name,\n        address addr,\n        bool success,\n        uint256 votes\n    );\n    event AirlinePaid(address addr, uint256 amount);\n\n    event FlightRegistered(\n        address airline,\n        string flight,\n        string from,\n        string to,\n        uint256 timestamp\n    );\n    event InsurancePurchased(\n        address airline,\n        string flight,\n        uint256 timestamp,\n        address passenger,\n        uint256 amount,\n        uint256 multiplier\n    );\n\n    /********************************************************************************************/\n    /*                                       UTILITY FUNCTIONS                                  */\n    /********************************************************************************************/\n\n    function isOperational() external view returns (bool) {\n        return flightSuretyData.isOperational();\n    }\n\n    /********************************************************************************************/\n    /*                                     SMART CONTRACT FUNCTIONS                             */\n    /********************************************************************************************/\n\n    /**\n     * @dev Add an airline to the registration queue\n     *\n     */\n    function registerAirline(string memory name, address addr)\n        public\n        requireValidAddress(addr)\n        requireAirlineIsPaid(msg.sender)\n        requireIsOperational\n        requireNonDupAirline(addr)\n        returns (bool success, uint256 votes)\n    {\n        bool result = false;\n\n        address[] memory registeredAirlines = flightSuretyData.getRegisteredAirlines();\n\n        // first airline company\n        if (\n            registeredAirlines.length == 0 || registeredAirlines.length < REGISTER_AIRLINE_REGISTRATION_THRESHOLD\n        ) \n        {\n            result = flightSuretyData.registerAirline(name, addr);\n        } \n        else \n        {\n            registeredAirlinesWithVotes[addr].push(msg.sender);\n\n            if (\n                registeredAirlinesWithVotes[addr].length >=\n                registeredAirlines.length.div(MULTI_SIG_CONSENSUS_DIVISOR)\n            ) {\n                result = flightSuretyData.registerAirline(name, addr);\n\n                registeredAirlinesWithVotes[addr] = new address[](0);\n            }\n        }\n\n        emit AirlineRegistered(\n            name,\n            addr,\n            result,\n            registeredAirlinesWithVotes[addr].length\n        );\n\n        return (result, registeredAirlinesWithVotes[addr].length);\n    }\n\n    /**\n     * @dev Register a future flight for insuring.\n     */\n    function registerFlight(        \n        string  flight,\n        string from,\n        string to,\n        uint256 timestamp\n    )\n        external\n        requireIsOperational\n        requireValidAddress(msg.sender)\n        requireAirlineIsPaid(msg.sender)\n    {\n        bytes32 flightKey = getFlightKey(msg.sender, flight, timestamp);\n        flightSuretyData.registerFlight(msg.sender, flight, from, to, timestamp, flightKey);\n        emit FlightRegistered(msg.sender, flight, from, to, timestamp);\n    }\n\n\n    function isRegisteredFlight(address airline, string  flight, uint256 timestamp) \n    public view returns (bool)\n    {   \n        return flightSuretyData.isRegisteredFlight(getFlightKey(airline, flight, timestamp));\n    }\n\n\n\n function isInsured(address passenger, address airline, string  flight, uint256 timestamp) \n requireIsOperational  \n public view returns (bool) \n{\n    return flightSuretyData.isInsured(getFlightKey(passenger, flight, timestamp), passenger);\n}\n\n\n    function purchaseInsurance(\n        address airline,\n        string  flight,\n        uint256 timestamp // requireIsOperational\n    ) external payable \n        requireInsuranceFee()\n        requireFlightTobeRegistered(airline, flight, timestamp)\n        requireOnlyPassenger(flight, timestamp)\n    {\n        // Cast address to payable address\n        address(uint160(address(flightSuretyData))).transfer(msg.value);\n        bytes32 flightKey = getFlightKey(msg.sender, flight, timestamp);\n\n        flightSuretyData.purchase(\n            flightKey,\n            msg.sender,\n            msg.value,\n            INSURANCE_PERCENTAGE_MULTIPLIER\n        );\n\n        emit InsurancePurchased(\n            airline,\n            flight,\n            timestamp,\n            msg.sender,\n            msg.value,\n            INSURANCE_PERCENTAGE_MULTIPLIER\n        );\n    }\n\n    /**\n     * @dev Submit funding for airline\n     */\n    function payAirline() external payable requireIsOperational requireFee {\n        // Cast address to payable address\n        address(uint160(address(flightSuretyData))).transfer(msg.value);\n        flightSuretyData.payAirline(msg.sender);\n        emit AirlinePaid(msg.sender, msg.value);\n    }\n\n    /**\n     * @dev Called after oracle has updated flight status\n     */\n    function processFlightStatus(\n        address airline,\n        string memory flight,\n        uint256 timestamp,\n        uint8 statusCode\n    ) internal requireIsOperational {\n        flightSuretyData.processFlightStatus(\n            airline,\n            flight,\n            timestamp,\n            statusCode\n        );\n    }\n\n    // Generate a request for oracles to fetch flight information\n    function fetchFlightStatus(\n        address airline,\n        string  flight,\n        uint256 timestamp\n    ) external {\n        uint8 index = getRandomIndex(msg.sender);\n\n        // Generate a unique key for storing the request\n        bytes32 key = keccak256(\n            abi.encodePacked(index, airline, flight, timestamp)\n        );\n        oracleResponses[key] = ResponseInfo({\n            requester: msg.sender,\n            isOpen: true\n        });\n\n        emit OracleRequest(index, airline, flight, timestamp);\n    }\n\n    function getPendingPaymentAmount(address passenger) external returns (uint256) \n    {\n        return flightSuretyData.getPendingPaymentAmount(passenger);\n    }  \n\n    function refund() requireIsOperational external\n    {\n        return flightSuretyData.refund(msg.sender);\n    }\n\n    /********************************************************************************************/\n    /*                                     ORACLE MANAGEMENT                                    */\n    /********************************************************************************************/\n\n    modifier requireOracleRegistrationFee() {\n        require(msg.value >= REGISTRATION_FEE, \"Registration fee is required\");\n        _;\n    }\n\n    uint8 private nonce = 0;\n    uint256 public constant REGISTRATION_FEE = 1 ether;\n    uint256 private constant MIN_RESPONSES = 3;\n\n    struct ResponseInfo {\n        address requester;\n        bool isOpen;\n        mapping(uint8 => address[]) responses;\n    }\n\n    mapping(bytes32 => ResponseInfo) private oracleResponses;\n\n    struct Oracle {\n        bool isRegistered;\n        uint8[3] indexes;\n    }\n\n    mapping(address => Oracle) private oracles;\n\n    event FlightStatusInfo(\n        address airline,\n        string flight,\n        uint256 timestamp,\n        uint8 status\n    );\n\n    event OracleReport(\n        address airline,\n        string flight,\n        uint256 timestamp,\n        uint8 status\n    );\n\n    event OracleRequest(\n        uint8 index,\n        address airline,\n        string flight,\n        uint256 timestamp\n    );\n\n    function getMyIndexes()\n        external\n        view\n        requireIsOperational\n        returns (uint8[3] memory)\n    {\n        require(\n            oracles[msg.sender].isRegistered,\n            \"Not registered as an oracle\"\n        );\n        return oracles[msg.sender].indexes;\n    }\n\n    // Register an oracle with the contract\n    function registerOracle()\n        external\n        payable\n        requireOracleRegistrationFee\n        requireIsOperational\n    {\n        uint8[3] memory indexes = generateIndexes(msg.sender);\n        oracles[msg.sender] = Oracle({isRegistered: true, indexes: indexes});\n    }\n\n    function submitOracleResponse(\n        uint8 index,\n        address airline,\n        string  flight,\n        uint256 timestamp,\n        uint8 statusCode\n    ) external requireIsOperational {\n        require(\n            (oracles[msg.sender].indexes[0] == index) ||\n                (oracles[msg.sender].indexes[1] == index) ||\n                (oracles[msg.sender].indexes[2] == index),\n            \"Index does not match oracle request\"\n        );\n\n        bytes32 key = keccak256(\n            abi.encodePacked(index, airline, flight, timestamp)\n        );\n        require(\n            oracleResponses[key].isOpen,\n            \"Flight or timestamp do not match oracle request\"\n        );\n\n        oracleResponses[key].responses[statusCode].push(msg.sender);        \n        emit OracleReport(airline, flight, timestamp, statusCode);\n\n        if (\n            oracleResponses[key].responses[statusCode].length >= MIN_RESPONSES\n        ) {\n            emit FlightStatusInfo(airline, flight, timestamp, statusCode);            \n            processFlightStatus(airline, flight, timestamp, statusCode);\n        }\n    }\n\n    function getFlightKey(\n        address airline,\n        string memory flight,\n        uint256 timestamp\n    ) internal pure returns (bytes32) {\n        return keccak256(abi.encodePacked(airline, flight, timestamp));\n    }\n    \n    function generateIndexes(address account)\n        internal\n        returns (uint8[3] memory)\n    {\n        uint8[3] memory indexes;\n        indexes[0] = getRandomIndex(account);\n\n        indexes[1] = indexes[0];\n        while (indexes[1] == indexes[0]) {\n            indexes[1] = getRandomIndex(account);\n        }\n\n        indexes[2] = indexes[1];\n        while ((indexes[2] == indexes[0]) || (indexes[2] == indexes[1])) {\n            indexes[2] = getRandomIndex(account);\n        }\n\n        return indexes;\n    }\n\n    function getRandomIndex(address account) internal returns (uint8) {\n        uint8 maxValue = 10;\n        uint8 random = uint8(\n            uint256(\n                keccak256(\n                    abi.encodePacked(blockhash(block.number - nonce++), account)\n                )\n            ) % maxValue\n        );\n\n        if (nonce > 250) {\n            nonce = 0; // Can only fetch blockhashes for last 256 blocks so we adapt\n        }\n\n        return random;\n    }\n}\n\n// FlightSurety data contract interface\ninterface FlightSuretyData {\n    function isOperational() external view returns (bool);\n\n    function isPaidAirline(address airline) external view returns (bool);\n\n    function getRegisteredAirlines() external view returns (address[] memory);\n\n    function setOperatingStatus(bool mode) external;\n\n    function registerAirline(string name, address addr) external returns (bool);\n\n    function isRegisteredAirline(address airline) external view returns (bool);\n\n    function payAirline(address addr) external payable;\n\n    function processFlightStatus(\n        address airline,\n        string  flight,\n        uint256 timestamp,\n        uint8 statusCode\n    ) external;\n\n    function registerFlight(\n        address airline,\n        string  flight,\n        string from,\n        string to,\n        uint256 timestamp,\n        bytes32 key\n    ) external;\n\n    function isRegisteredFlight(\n        bytes32 key\n    ) external view returns (bool);\n\n    // Passengers\n    function purchase(\n        bytes32 key,\n        address passenger,\n        uint256 amount,\n        uint256 multiplier\n    ) external payable;\n\n    function isInsured(\n        bytes32 key,\n        address passenger        \n    ) external view returns (bool);\n\n    function refund(address passenger) external;    \n    function getPendingPaymentAmount(address passenger) external view returns (uint256);\n}\n",
  "sourcePath": "C:\\Project\\FlightSuretyReact\\smart-contract\\contracts\\FlightSuretyApp.sol",
  "compiler": {
    "name": "solc",
    "version": "0.4.26+commit.4563c3fc.Emscripten.clang"
  },
  "schemaVersion": "3.4.3",
  "updatedAt": "2021-10-16T12:08:08.600Z",
  "devdoc": {
    "methods": {
      "payAirline()": {
        "details": "Submit funding for airline"
      },
      "registerAirline(string,address)": {
        "details": "Add an airline to the registration queue     "
      },
      "registerFlight(string,string,string,uint256)": {
        "details": "Register a future flight for insuring."
      }
    }
  },
  "userdoc": {
    "methods": {
      "isOperational()": {
        "notice": "*****************************************************************************************"
      }
    }
  }
}